{
  "transactions": [
    {
      "hash": "0x0476e0272481b857f658a7e6d7e9aed06b5f6e0e8f8785223bc9cbef2ecca7d2",
      "transactionType": "CALL",
      "contractName": null,
      "contractAddress": "0x8abcae02b22a5267a94689f417824eff177da0df",
      "function": "sendMessage(uint32,address,bytes)",
      "arguments": [
        "25327",
        "0x8ABCaE02B22a5267A94689F417824eFF177Da0Df",
        "0x48656c6c6f2066726f6d204261736520746f2045766572636c6561722053746167696e6721"
      ],
      "transaction": {
        "from": "0xcc3dee77dd3a77dc623d6c8b931a1b0aab56d81d",
        "to": "0x8abcae02b22a5267a94689f417824eff177da0df",
        "gas": "0x198d4",
        "value": "0x0",
        "input": "0x101ac9ee00000000000000000000000000000000000000000000000000000000000062ef0000000000000000000000008abcae02b22a5267a94689f417824eff177da0df0000000000000000000000000000000000000000000000000000000000000060000000000000000000000000000000000000000000000000000000000000002548656c6c6f2066726f6d204261736520746f2045766572636c6561722053746167696e6721000000000000000000000000000000000000000000000000000000",
        "nonce": "0xf",
        "chainId": "0x2105"
      },
      "additionalContracts": [],
      "isFixedGasLimit": false
    }
  ],
  "receipts": [
    {
      "status": "0x1",
      "cumulativeGasUsed": "0x230e222",
      "logs": [
        {
          "address": "0xd84ab43d7f2f99339657e4bfae3c955be8d3099c",
          "topics": [
            "0x769f711d20c679153d382254f59892613b58a97cc876b249134ac25c80f9c814",
            "0x00000000000000000000000046cb3da13fd222887ef869e2db5ab73c854fcf0d",
            "0x00000000000000000000000000000000000000000000000000000000000062ef",
            "0x0000000000000000000000008abcae02b22a5267a94689f417824eff177da0df"
          ],
          "data": "0x0000000000000000000000000000000000000000000000000000000000000020000000000000000000000000000000000000000000000000000000000000007203000000010000210500000000000000000000000046cb3da13fd222887ef869e2db5ab73c854fcf0d000062ef0000000000000000000000008abcae02b22a5267a94689f417824eff177da0df48656c6c6f2066726f6d204261736520746f2045766572636c6561722053746167696e67210000000000000000000000000000",
          "blockHash": "0xb000faa4b4ee4ecd057712784c16eb61c15fc6d6e340f50bf53a02279509646d",
          "blockNumber": "0x1ccd9c8",
          "transactionHash": "0x0476e0272481b857f658a7e6d7e9aed06b5f6e0e8f8785223bc9cbef2ecca7d2",
          "transactionIndex": "0x8f",
          "logIndex": "0x1d8",
          "removed": false
        },
        {
          "address": "0xd84ab43d7f2f99339657e4bfae3c955be8d3099c",
          "topics": [
            "0x788dbc1b7152732178210e7f4d9d010ef016f9eafbe66786bd7169f56e0c353a",
            "0x02dd75a66409a69ce3e7a1926989c1a0aee4a6eb5584f1a20c80e14bc5ab80ac"
          ],
          "data": "0x",
          "blockHash": "0xb000faa4b4ee4ecd057712784c16eb61c15fc6d6e340f50bf53a02279509646d",
          "blockNumber": "0x1ccd9c8",
          "transactionHash": "0x0476e0272481b857f658a7e6d7e9aed06b5f6e0e8f8785223bc9cbef2ecca7d2",
          "transactionIndex": "0x8f",
          "logIndex": "0x1d9",
          "removed": false
        },
        {
          "address": "0x8abcae02b22a5267a94689f417824eff177da0df",
          "topics": [
            "0xbcfd114620ceaba6c297bf4337e8da817105a7c78fab1cc17a0f81cc1bf08beb"
          ],
          "data": "0x00000000000000000000000000000000000000000000000000000000000062ef0000000000000000000000008abcae02b22a5267a94689f417824eff177da0df000000000000000000000000000000000000000000000000000000000000008002dd75a66409a69ce3e7a1926989c1a0aee4a6eb5584f1a20c80e14bc5ab80ac000000000000000000000000000000000000000000000000000000000000002548656c6c6f2066726f6d204261736520746f2045766572636c6561722053746167696e6721000000000000000000000000000000000000000000000000000000",
          "blockHash": "0xb000faa4b4ee4ecd057712784c16eb61c15fc6d6e340f50bf53a02279509646d",
          "blockNumber": "0x1ccd9c8",
          "transactionHash": "0x0476e0272481b857f658a7e6d7e9aed06b5f6e0e8f8785223bc9cbef2ecca7d2",
          "transactionIndex": "0x8f",
          "logIndex": "0x1da",
          "removed": false
        }
      ],
      "logsBloom": "0x00000000000000800000000000000000000000000200000000000080000000000020000000000000000800000000000000000000000000000000000000000800000000000000000000000040000000000002080000100000000000000000000000000000000000000000020000002000000000000000040004002004001000000000000000000000000000000000000000004000000000000000000000000000000000000000000000000000000000000000000000000100000004000000000000001000000000000000000000000000000001000000000000000000000000000000410000000000000000040000000000000000000000000000008000000100",
      "type": "0x2",
      "transactionHash": "0x0476e0272481b857f658a7e6d7e9aed06b5f6e0e8f8785223bc9cbef2ecca7d2",
      "transactionIndex": "0x8f",
      "blockHash": "0xb000faa4b4ee4ecd057712784c16eb61c15fc6d6e340f50bf53a02279509646d",
      "blockNumber": "0x1ccd9c8",
      "gasUsed": "0x1178b",
      "effectiveGasPrice": "0x19a655",
      "from": "0xcc3dee77dd3a77dc623d6c8b931a1b0aab56d81d",
      "to": "0x8abcae02b22a5267a94689f417824eff177da0df",
      "contractAddress": null,
      "l1BaseFeeScalar": "0x8dd",
      "l1BlobBaseFee": "0x1",
      "l1BlobBaseFeeScalar": "0x101c12",
      "l1Fee": "0x192ccce1c",
      "l1GasPrice": "0x5cb1fcb1",
      "l1GasUsed": "0x77b"
    }
  ],
  "libraries": [],
  "pending": [],
  "returns": {},
  "timestamp": 1747193972,
  "chain": 8453,
  "commit": "4e7e582cc"
}