{
  "transactions": [
    {
      "hash": "0x2fb325f660666e99f9ffb49330db44c2e6cdae23a6725288d4b71bdc2937d354",
      "transactionType": "CALL",
      "contractName": null,
      "contractAddress": "0x8abcae02b22a5267a94689f417824eff177da0df",
      "function": "sendMessage(uint32,address,bytes)",
      "arguments": [
        "25327",
        "0x8ABCaE02B22a5267A94689F417824eFF177Da0Df",
        "0x48656c6c6f2066726f6d204261736520746f2045766572636c6561722053746167696e6721"
      ],
      "transaction": {
        "from": "0xcc3dee77dd3a77dc623d6c8b931a1b0aab56d81d",
        "to": "0x8abcae02b22a5267a94689f417824eff177da0df",
        "gas": "0x25c35",
        "value": "0x0",
        "input": "0x101ac9ee00000000000000000000000000000000000000000000000000000000000062ef0000000000000000000000008abcae02b22a5267a94689f417824eff177da0df0000000000000000000000000000000000000000000000000000000000000060000000000000000000000000000000000000000000000000000000000000002548656c6c6f2066726f6d204261736520746f2045766572636c6561722053746167696e6721000000000000000000000000000000000000000000000000000000",
        "nonce": "0xe",
        "chainId": "0x2105"
      },
      "additionalContracts": [],
      "isFixedGasLimit": false
    }
  ],
  "receipts": [
    {
      "status": "0x1",
      "cumulativeGasUsed": "0x28e7562",
      "logs": [
        {
          "address": "0xd84ab43d7f2f99339657e4bfae3c955be8d3099c",
          "topics": [
            "0x769f711d20c679153d382254f59892613b58a97cc876b249134ac25c80f9c814",
            "0x00000000000000000000000046cb3da13fd222887ef869e2db5ab73c854fcf0d",
            "0x00000000000000000000000000000000000000000000000000000000000062ef",
            "0x0000000000000000000000008abcae02b22a5267a94689f417824eff177da0df"
          ],
          "data": "0x0000000000000000000000000000000000000000000000000000000000000020000000000000000000000000000000000000000000000000000000000000007203000000000000210500000000000000000000000046cb3da13fd222887ef869e2db5ab73c854fcf0d000062ef0000000000000000000000008abcae02b22a5267a94689f417824eff177da0df48656c6c6f2066726f6d204261736520746f2045766572636c6561722053746167696e67210000000000000000000000000000",
          "blockHash": "0x5257df5752b3ff7d75e2957fc12613340807e444bc732d9db74aede3138682e4",
          "blockNumber": "0x1ccd75e",
          "transactionHash": "0x2fb325f660666e99f9ffb49330db44c2e6cdae23a6725288d4b71bdc2937d354",
          "transactionIndex": "0xc1",
          "logIndex": "0x32f",
          "removed": false
        },
        {
          "address": "0xd84ab43d7f2f99339657e4bfae3c955be8d3099c",
          "topics": [
            "0x788dbc1b7152732178210e7f4d9d010ef016f9eafbe66786bd7169f56e0c353a",
            "0x1c4df5ef3e16926173a66eb125968a2dd9625f42e0a58ef2d123ba973f89c570"
          ],
          "data": "0x",
          "blockHash": "0x5257df5752b3ff7d75e2957fc12613340807e444bc732d9db74aede3138682e4",
          "blockNumber": "0x1ccd75e",
          "transactionHash": "0x2fb325f660666e99f9ffb49330db44c2e6cdae23a6725288d4b71bdc2937d354",
          "transactionIndex": "0xc1",
          "logIndex": "0x330",
          "removed": false
        },
        {
          "address": "0x8abcae02b22a5267a94689f417824eff177da0df",
          "topics": [
            "0xbcfd114620ceaba6c297bf4337e8da817105a7c78fab1cc17a0f81cc1bf08beb"
          ],
          "data": "0x00000000000000000000000000000000000000000000000000000000000062ef0000000000000000000000008abcae02b22a5267a94689f417824eff177da0df00000000000000000000000000000000000000000000000000000000000000801c4df5ef3e16926173a66eb125968a2dd9625f42e0a58ef2d123ba973f89c570000000000000000000000000000000000000000000000000000000000000002548656c6c6f2066726f6d204261736520746f2045766572636c6561722053746167696e6721000000000000000000000000000000000000000000000000000000",
          "blockHash": "0x5257df5752b3ff7d75e2957fc12613340807e444bc732d9db74aede3138682e4",
          "blockNumber": "0x1ccd75e",
          "transactionHash": "0x2fb325f660666e99f9ffb49330db44c2e6cdae23a6725288d4b71bdc2937d354",
          "transactionIndex": "0xc1",
          "logIndex": "0x331",
          "removed": false
        }
      ],
      "logsBloom": "0x00000000000000800000000000000000000000000000000000000080000000000020000000000000000800000000000000000000000000000000000000000800000000000000000000000000000008000002080000100000000000000000000000000000000000000000020000002000000000000000040004002004001000000000000000000000000000000000000000004000000000000000000000000000000000000000000000000000000000000000000000000100000000000000000000001000000000000000000000000000000001000000000000002000000000000000410000000000000000040000000000000000000000000000008000008100",
      "type": "0x2",
      "transactionHash": "0x2fb325f660666e99f9ffb49330db44c2e6cdae23a6725288d4b71bdc2937d354",
      "transactionIndex": "0xc1",
      "blockHash": "0x5257df5752b3ff7d75e2957fc12613340807e444bc732d9db74aede3138682e4",
      "blockNumber": "0x1ccd75e",
      "gasUsed": "0x19d23",
      "effectiveGasPrice": "0x15a50c",
      "from": "0xcc3dee77dd3a77dc623d6c8b931a1b0aab56d81d",
      "to": "0x8abcae02b22a5267a94689f417824eff177da0df",
      "contractAddress": null,
      "l1BaseFeeScalar": "0x8dd",
      "l1BlobBaseFee": "0x1",
      "l1BlobBaseFeeScalar": "0x101c12",
      "l1Fee": "0x1a32bdeba",
      "l1GasPrice": "0x60767721",
      "l1GasUsed": "0x77b"
    }
  ],
  "libraries": [],
  "pending": [],
  "returns": {},
  "timestamp": 1747192737,
  "chain": 8453,
  "commit": "4e7e582cc"
}