{
  "transactions": [
    {
      "hash": "0x5a3c30fd90815d9326d6da8b5f0d3b8cfed0d494f35a8e8162e84951f2936359",
      "transactionType": "CALL",
      "contractName": null,
      "contractAddress": "0xc81686396c44dd0f39a76de2bec5cce2ee3d4548",
      "function": "sendMessage(uint32,address,bytes)",
      "arguments": [
        "25327",
        "0x56088923b84121327b85802Dcca1A84478eB1ea2",
        "0x48656c6c6f2066726f6d204261736520746f2045766572636c6561722053746167696e6721"
      ],
      "transaction": {
        "from": "0xcc3dee77dd3a77dc623d6c8b931a1b0aab56d81d",
        "to": "0xc81686396c44dd0f39a76de2bec5cce2ee3d4548",
        "gas": "0x16195",
        "value": "0x0",
        "input": "0x101ac9ee00000000000000000000000000000000000000000000000000000000000062ef00000000000000000000000056088923b84121327b85802dcca1a84478eb1ea20000000000000000000000000000000000000000000000000000000000000060000000000000000000000000000000000000000000000000000000000000002548656c6c6f2066726f6d204261736520746f2045766572636c6561722053746167696e6721000000000000000000000000000000000000000000000000000000",
        "nonce": "0x1c",
        "chainId": "0x2105"
      },
      "additionalContracts": [],
      "isFixedGasLimit": false
    }
  ],
  "receipts": [
    {
      "status": "0x1",
      "cumulativeGasUsed": "0x5c65468",
      "logs": [
        {
          "address": "0xd84ab43d7f2f99339657e4bfae3c955be8d3099c",
          "topics": [
            "0x769f711d20c679153d382254f59892613b58a97cc876b249134ac25c80f9c814",
            "0x000000000000000000000000c81686396c44dd0f39a76de2bec5cce2ee3d4548",
            "0x00000000000000000000000000000000000000000000000000000000000062ef",
            "0x00000000000000000000000056088923b84121327b85802dcca1a84478eb1ea2"
          ],
          "data": "0x00000000000000000000000000000000000000000000000000000000000000200000000000000000000000000000000000000000000000000000000000000072030000000600002105000000000000000000000000c81686396c44dd0f39a76de2bec5cce2ee3d4548000062ef00000000000000000000000056088923b84121327b85802dcca1a84478eb1ea248656c6c6f2066726f6d204261736520746f2045766572636c6561722053746167696e67210000000000000000000000000000",
          "blockHash": "0x4fe7411af68693a1a36bf897eabed30cb97713fb3cd55d46b985b8bb9cd80cb1",
          "blockNumber": "0x1cd39a5",
          "transactionHash": "0x5a3c30fd90815d9326d6da8b5f0d3b8cfed0d494f35a8e8162e84951f2936359",
          "transactionIndex": "0xf8",
          "logIndex": "0x4b6",
          "removed": false
        },
        {
          "address": "0xd84ab43d7f2f99339657e4bfae3c955be8d3099c",
          "topics": [
            "0x788dbc1b7152732178210e7f4d9d010ef016f9eafbe66786bd7169f56e0c353a",
            "0x9db2280fa2fba920c67be5ab995332117a55204ed988502cadcf5ad548bb2e27"
          ],
          "data": "0x",
          "blockHash": "0x4fe7411af68693a1a36bf897eabed30cb97713fb3cd55d46b985b8bb9cd80cb1",
          "blockNumber": "0x1cd39a5",
          "transactionHash": "0x5a3c30fd90815d9326d6da8b5f0d3b8cfed0d494f35a8e8162e84951f2936359",
          "transactionIndex": "0xf8",
          "logIndex": "0x4b7",
          "removed": false
        },
        {
          "address": "0xc81686396c44dd0f39a76de2bec5cce2ee3d4548",
          "topics": [
            "0xbcfd114620ceaba6c297bf4337e8da817105a7c78fab1cc17a0f81cc1bf08beb"
          ],
          "data": "0x00000000000000000000000000000000000000000000000000000000000062ef00000000000000000000000056088923b84121327b85802dcca1a84478eb1ea200000000000000000000000000000000000000000000000000000000000000809db2280fa2fba920c67be5ab995332117a55204ed988502cadcf5ad548bb2e27000000000000000000000000000000000000000000000000000000000000002548656c6c6f2066726f6d204261736520746f2045766572636c6561722053746167696e6721000000000000000000000000000000000000000000000000000000",
          "blockHash": "0x4fe7411af68693a1a36bf897eabed30cb97713fb3cd55d46b985b8bb9cd80cb1",
          "blockNumber": "0x1cd39a5",
          "transactionHash": "0x5a3c30fd90815d9326d6da8b5f0d3b8cfed0d494f35a8e8162e84951f2936359",
          "transactionIndex": "0xf8",
          "logIndex": "0x4b8",
          "removed": false
        }
      ],
      "logsBloom": "0x00000000800000c00000000000000000000000000000000000002000000000000020000000000000000800088000000000000000000000000000000000000800000000000000000000000000000000000000080040100000000000000000000010000000000000000000020000002000000000000000000004001004001000000008000000080000000000000000000000000000000000000000000000004000000000000000000000000000000000000000000000000000000000000000000000001000000000000000000000000000000000000000000000000000000000400000400000000000000000000000000000000000000000000000008000000100",
      "type": "0x2",
      "transactionHash": "0x5a3c30fd90815d9326d6da8b5f0d3b8cfed0d494f35a8e8162e84951f2936359",
      "transactionIndex": "0xf8",
      "blockHash": "0x4fe7411af68693a1a36bf897eabed30cb97713fb3cd55d46b985b8bb9cd80cb1",
      "blockNumber": "0x1cd39a5",
      "gasUsed": "0xfffe",
      "effectiveGasPrice": "0x18e1ab",
      "from": "0xcc3dee77dd3a77dc623d6c8b931a1b0aab56d81d",
      "to": "0xc81686396c44dd0f39a76de2bec5cce2ee3d4548",
      "contractAddress": null,
      "l1BaseFeeScalar": "0x8dd",
      "l1BlobBaseFee": "0x1",
      "l1BlobBaseFeeScalar": "0x101c12",
      "l1Fee": "0x2a7b12276",
      "l1GasPrice": "0x8bce4f30",
      "l1GasUsed": "0x85e"
    }
  ],
  "libraries": [],
  "pending": [],
  "returns": {},
  "timestamp": 1747243055,
  "chain": 8453,
  "commit": "d93c58461"
}