{
  "transactions": [
    {
      "hash": "0x055fc9fb9c041f1eea3d45916460523ab7d3b63c4c56954b8d5038bcbddd5819",
      "transactionType": "CALL",
      "contractName": null,
      "contractAddress": "0x8abcae02b22a5267a94689f417824eff177da0df",
      "function": "sendMessage(uint32,address,bytes)",
      "arguments": [
        "25327",
        "0x8ABCaE02B22a5267A94689F417824eFF177Da0Df",
        "0x48656c6c6f2066726f6d204261736520746f2045766572636c6561722053746167696e6721"
      ],
      "transaction": {
        "from": "0xcc3dee77dd3a77dc623d6c8b931a1b0aab56d81d",
        "to": "0x8abcae02b22a5267a94689f417824eff177da0df",
        "gas": "0x3b01a",
        "value": "0x0",
        "input": "0x101ac9ee00000000000000000000000000000000000000000000000000000000000062ef0000000000000000000000008abcae02b22a5267a94689f417824eff177da0df0000000000000000000000000000000000000000000000000000000000000060000000000000000000000000000000000000000000000000000000000000002548656c6c6f2066726f6d204261736520746f2045766572636c6561722053746167696e6721000000000000000000000000000000000000000000000000000000",
        "nonce": "0xc",
        "chainId": "0x2105"
      },
      "additionalContracts": [],
      "isFixedGasLimit": false
    }
  ],
  "receipts": [
    {
      "status": "0x1",
      "cumulativeGasUsed": "0x3dd0c12",
      "logs": [
        {
          "address": "0xea87ae93fa0019a82a727bfd3ebd1cfca8f64f1d",
          "topics": [
            "0x769f711d20c679153d382254f59892613b58a97cc876b249134ac25c80f9c814",
            "0x00000000000000000000000046cb3da13fd222887ef869e2db5ab73c854fcf0d",
            "0x00000000000000000000000000000000000000000000000000000000000062ef",
            "0x0000000000000000000000008abcae02b22a5267a94689f417824eff177da0df"
          ],
          "data": "0x00000000000000000000000000000000000000000000000000000000000000200000000000000000000000000000000000000000000000000000000000000072030014d2040000210500000000000000000000000046cb3da13fd222887ef869e2db5ab73c854fcf0d000062ef0000000000000000000000008abcae02b22a5267a94689f417824eff177da0df48656c6c6f2066726f6d204261736520746f2045766572636c6561722053746167696e67210000000000000000000000000000",
          "blockHash": "0x2db1f7656d2606ef1b2e75d0d054a1a7b030fc1176206124f2d62d2cab132d79",
          "blockNumber": "0x1ccd5b1",
          "transactionHash": "0x055fc9fb9c041f1eea3d45916460523ab7d3b63c4c56954b8d5038bcbddd5819",
          "transactionIndex": "0xc6",
          "logIndex": "0x3f1",
          "removed": false
        },
        {
          "address": "0xea87ae93fa0019a82a727bfd3ebd1cfca8f64f1d",
          "topics": [
            "0x788dbc1b7152732178210e7f4d9d010ef016f9eafbe66786bd7169f56e0c353a",
            "0x9d05f04632dc94c1b096c1ec0ebd57c45dd3342108b2eb66372ed18c3355999a"
          ],
          "data": "0x",
          "blockHash": "0x2db1f7656d2606ef1b2e75d0d054a1a7b030fc1176206124f2d62d2cab132d79",
          "blockNumber": "0x1ccd5b1",
          "transactionHash": "0x055fc9fb9c041f1eea3d45916460523ab7d3b63c4c56954b8d5038bcbddd5819",
          "transactionIndex": "0xc6",
          "logIndex": "0x3f2",
          "removed": false
        },
        {
          "address": "0x19dc38aeae620380430c200a6e990d5af5480117",
          "topics": [
            "0x253a3a04cab70d47c1504809242d9350cd81627b4f1d50753e159cf8cd76ed33"
          ],
          "data": "0x9d05f04632dc94c1b096c1ec0ebd57c45dd3342108b2eb66372ed18c3355999a000000000000000000000000000000000000000000000000000000000014d1ef",
          "blockHash": "0x2db1f7656d2606ef1b2e75d0d054a1a7b030fc1176206124f2d62d2cab132d79",
          "blockNumber": "0x1ccd5b1",
          "transactionHash": "0x055fc9fb9c041f1eea3d45916460523ab7d3b63c4c56954b8d5038bcbddd5819",
          "transactionIndex": "0xc6",
          "logIndex": "0x3f3",
          "removed": false
        },
        {
          "address": "0xc3f23848ed2e04c0c6d41bd7804fa8f89f940b94",
          "topics": [
            "0x65695c3748edae85a24cc2c60b299b31f463050bc259150d2e5802ec8d11720a",
            "0x9d05f04632dc94c1b096c1ec0ebd57c45dd3342108b2eb66372ed18c3355999a",
            "0x00000000000000000000000000000000000000000000000000000000000062ef"
          ],
          "data": "0x0000000000000000000000000000000000000000000000000000000000036c21000000000000000000000000000000000000000000000000000071b861ddcaa5",
          "blockHash": "0x2db1f7656d2606ef1b2e75d0d054a1a7b030fc1176206124f2d62d2cab132d79",
          "blockNumber": "0x1ccd5b1",
          "transactionHash": "0x055fc9fb9c041f1eea3d45916460523ab7d3b63c4c56954b8d5038bcbddd5819",
          "transactionIndex": "0xc6",
          "logIndex": "0x3f4",
          "removed": false
        },
        {
          "address": "0x8abcae02b22a5267a94689f417824eff177da0df",
          "topics": [
            "0xbcfd114620ceaba6c297bf4337e8da817105a7c78fab1cc17a0f81cc1bf08beb"
          ],
          "data": "0x00000000000000000000000000000000000000000000000000000000000062ef0000000000000000000000008abcae02b22a5267a94689f417824eff177da0df00000000000000000000000000000000000000000000000000000000000000809d05f04632dc94c1b096c1ec0ebd57c45dd3342108b2eb66372ed18c3355999a000000000000000000000000000000000000000000000000000000000000002548656c6c6f2066726f6d204261736520746f2045766572636c6561722053746167696e6721000000000000000000000000000000000000000000000000000000",
          "blockHash": "0x2db1f7656d2606ef1b2e75d0d054a1a7b030fc1176206124f2d62d2cab132d79",
          "blockNumber": "0x1ccd5b1",
          "transactionHash": "0x055fc9fb9c041f1eea3d45916460523ab7d3b63c4c56954b8d5038bcbddd5819",
          "transactionIndex": "0xc6",
          "logIndex": "0x3f5",
          "removed": false
        }
      ],
      "logsBloom": "0x00000000000000808000000000000000000000000000000000000080002000000000000000000000000800000000080000000000000001000000000000000800000000000020000000000000000000000002080000100000000000400000000000000000000000000000020000002000000000000000040004002004081000000000000000000000000000000100000000004000000000000000000000800000000002000000000000000000000000000200000000000100000000000000000000001001000000000000000000000000020001000000000000000000000000000000410000000000000000040000000000000400000000000000000000000600",
      "type": "0x2",
      "transactionHash": "0x055fc9fb9c041f1eea3d45916460523ab7d3b63c4c56954b8d5038bcbddd5819",
      "transactionIndex": "0xc6",
      "blockHash": "0x2db1f7656d2606ef1b2e75d0d054a1a7b030fc1176206124f2d62d2cab132d79",
      "blockNumber": "0x1ccd5b1",
      "gasUsed": "0x2858b",
      "effectiveGasPrice": "0x1159c0",
      "from": "0xcc3dee77dd3a77dc623d6c8b931a1b0aab56d81d",
      "to": "0x8abcae02b22a5267a94689f417824eff177da0df",
      "contractAddress": null,
      "l1BaseFeeScalar": "0x8dd",
      "l1BlobBaseFee": "0x1",
      "l1BlobBaseFeeScalar": "0x101c12",
      "l1Fee": "0x182751e30",
      "l1GasPrice": "0x58ef34e5",
      "l1GasUsed": "0x77b"
    }
  ],
  "libraries": [],
  "pending": [],
  "returns": {},
  "timestamp": 1747191879,
  "chain": 8453,
  "commit": "6685d933b"
}