{
  "transactions": [
    {
      "hash": "0xda77fe3ec2a1dc62e23a1400382057334b1fbec0c6ae88206b42678b95cfe4e2",
      "transactionType": "CALL",
      "contractName": null,
      "contractAddress": "0xc81686396c44dd0f39a76de2bec5cce2ee3d4548",
      "function": "sendMessage(uint32,address,bytes)",
      "arguments": [
        "25327",
        "0x02b6ECe368D5De946Edb4710C7579f7fD9e6244E",
        "0x48656c6c6f2066726f6d204261736520746f2045766572636c6561722053746167696e6721"
      ],
      "transaction": {
        "from": "0xcc3dee77dd3a77dc623d6c8b931a1b0aab56d81d",
        "to": "0xc81686396c44dd0f39a76de2bec5cce2ee3d4548",
        "gas": "0x16195",
        "value": "0x0",
        "input": "0x101ac9ee00000000000000000000000000000000000000000000000000000000000062ef00000000000000000000000002b6ece368d5de946edb4710c7579f7fd9e6244e0000000000000000000000000000000000000000000000000000000000000060000000000000000000000000000000000000000000000000000000000000002548656c6c6f2066726f6d204261736520746f2045766572636c6561722053746167696e6721000000000000000000000000000000000000000000000000000000",
        "nonce": "0x28",
        "chainId": "0x2105"
      },
      "additionalContracts": [],
      "isFixedGasLimit": false
    }
  ],
  "receipts": [
    {
      "status": "0x1",
      "cumulativeGasUsed": "0x2f36042",
      "logs": [
        {
          "address": "0xd84ab43d7f2f99339657e4bfae3c955be8d3099c",
          "topics": [
            "0x769f711d20c679153d382254f59892613b58a97cc876b249134ac25c80f9c814",
            "0x000000000000000000000000c81686396c44dd0f39a76de2bec5cce2ee3d4548",
            "0x00000000000000000000000000000000000000000000000000000000000062ef",
            "0x00000000000000000000000002b6ece368d5de946edb4710c7579f7fd9e6244e"
          ],
          "data": "0x00000000000000000000000000000000000000000000000000000000000000200000000000000000000000000000000000000000000000000000000000000072030000000b00002105000000000000000000000000c81686396c44dd0f39a76de2bec5cce2ee3d4548000062ef00000000000000000000000002b6ece368d5de946edb4710c7579f7fd9e6244e48656c6c6f2066726f6d204261736520746f2045766572636c6561722053746167696e67210000000000000000000000000000",
          "blockHash": "0x35a27e1f532c8087db7f0db67f2d73931da4e77598923b702bc2ee701c20776e",
          "blockNumber": "0x1d20baa",
          "transactionHash": "0xda77fe3ec2a1dc62e23a1400382057334b1fbec0c6ae88206b42678b95cfe4e2",
          "transactionIndex": "0xc9",
          "logIndex": "0x40c",
          "removed": false
        },
        {
          "address": "0xd84ab43d7f2f99339657e4bfae3c955be8d3099c",
          "topics": [
            "0x788dbc1b7152732178210e7f4d9d010ef016f9eafbe66786bd7169f56e0c353a",
            "0xb746e35e0d1c93612d0a93578b42957f50085a27b57461179d0a1cdd2351b45e"
          ],
          "data": "0x",
          "blockHash": "0x35a27e1f532c8087db7f0db67f2d73931da4e77598923b702bc2ee701c20776e",
          "blockNumber": "0x1d20baa",
          "transactionHash": "0xda77fe3ec2a1dc62e23a1400382057334b1fbec0c6ae88206b42678b95cfe4e2",
          "transactionIndex": "0xc9",
          "logIndex": "0x40d",
          "removed": false
        },
        {
          "address": "0xc81686396c44dd0f39a76de2bec5cce2ee3d4548",
          "topics": [
            "0xbcfd114620ceaba6c297bf4337e8da817105a7c78fab1cc17a0f81cc1bf08beb"
          ],
          "data": "0x00000000000000000000000000000000000000000000000000000000000062ef00000000000000000000000002b6ece368d5de946edb4710c7579f7fd9e6244e0000000000000000000000000000000000000000000000000000000000000080b746e35e0d1c93612d0a93578b42957f50085a27b57461179d0a1cdd2351b45e000000000000000000000000000000000000000000000000000000000000002548656c6c6f2066726f6d204261736520746f2045766572636c6561722053746167696e6721000000000000000000000000000000000000000000000000000000",
          "blockHash": "0x35a27e1f532c8087db7f0db67f2d73931da4e77598923b702bc2ee701c20776e",
          "blockNumber": "0x1d20baa",
          "transactionHash": "0xda77fe3ec2a1dc62e23a1400382057334b1fbec0c6ae88206b42678b95cfe4e2",
          "transactionIndex": "0xc9",
          "logIndex": "0x40e",
          "removed": false
        }
      ],
      "logsBloom": "0x00000000000000c00400000000000000000000000000000000000000000000000020000000000000000800008000000000000000000000000000000000000800000000000000000000000000000000000400080000100000000000000000000000000000000000000000020000002000000000000000000004001004001000000008000000080000000000000000000000000000000000000000000000000000000040000000001000000000000000000000000000000000000000000000000002001000000000000000000000000000000000000080000000000000000000400000400000000000000000000000000000000000000000000000008000000100",
      "type": "0x2",
      "transactionHash": "0xda77fe3ec2a1dc62e23a1400382057334b1fbec0c6ae88206b42678b95cfe4e2",
      "transactionIndex": "0xc9",
      "blockHash": "0x35a27e1f532c8087db7f0db67f2d73931da4e77598923b702bc2ee701c20776e",
      "blockNumber": "0x1d20baa",
      "gasUsed": "0xfffe",
      "effectiveGasPrice": "0x15587a",
      "from": "0xcc3dee77dd3a77dc623d6c8b931a1b0aab56d81d",
      "to": "0xc81686396c44dd0f39a76de2bec5cce2ee3d4548",
      "contractAddress": null,
      "l1BaseFeeScalar": "0x8dd",
      "l1BlobBaseFee": "0x1",
      "l1BlobBaseFeeScalar": "0x101c12",
      "l1Fee": "0xdcdfe126",
      "l1GasPrice": "0x2d6e83f5",
      "l1GasUsed": "0x85e"
    }
  ],
  "libraries": [],
  "pending": [],
  "returns": {},
  "timestamp": 1747874871,
  "chain": 8453,
  "commit": "ee4e2d49a"
}