{
  "transactions": [
    {
      "hash": "0x38ac94305a62aa67fdffec85c31cca92bc08682ff3b65065ec39c5ecd05a26b8",
      "transactionType": "CALL",
      "contractName": null,
      "contractAddress": "0x8abcae02b22a5267a94689f417824eff177da0df",
      "function": "sendMessage(uint32,address,bytes)",
      "arguments": [
        "8453",
        "0x8ABCaE02B22a5267A94689F417824eFF177Da0Df",
        "0x48656c6c6f2066726f6d2045766572636c6561722053746167696e6720746f204261736521"
      ],
      "transaction": {
        "from": "0xcc3dee77dd3a77dc623d6c8b931a1b0aab56d81d",
        "to": "0x8abcae02b22a5267a94689f417824eff177da0df",
        "gas": "0x198d4",
        "value": "0x0",
        "input": "0x101ac9ee00000000000000000000000000000000000000000000000000000000000021050000000000000000000000008abcae02b22a5267a94689f417824eff177da0df0000000000000000000000000000000000000000000000000000000000000060000000000000000000000000000000000000000000000000000000000000002548656c6c6f2066726f6d2045766572636c6561722053746167696e6720746f204261736521000000000000000000000000000000000000000000000000000000",
        "nonce": "0xe",
        "chainId": "0x62ef"
      },
      "additionalContracts": [],
      "isFixedGasLimit": false
    }
  ],
  "receipts": [
    {
      "status": "0x1",
      "cumulativeGasUsed": "0x11bac",
      "logs": [
        {
          "address": "0xd84ab43d7f2f99339657e4bfae3c955be8d3099c",
          "topics": [
            "0x769f711d20c679153d382254f59892613b58a97cc876b249134ac25c80f9c814",
            "0x00000000000000000000000046cb3da13fd222887ef869e2db5ab73c854fcf0d",
            "0x0000000000000000000000000000000000000000000000000000000000002105",
            "0x0000000000000000000000008abcae02b22a5267a94689f417824eff177da0df"
          ],
          "data": "0x000000000000000000000000000000000000000000000000000000000000002000000000000000000000000000000000000000000000000000000000000000720300000001000062ef00000000000000000000000046cb3da13fd222887ef869e2db5ab73c854fcf0d000021050000000000000000000000008abcae02b22a5267a94689f417824eff177da0df48656c6c6f2066726f6d2045766572636c6561722053746167696e6720746f2042617365210000000000000000000000000000",
          "blockHash": "0x5383a9ef9c8f89860230b25e234a5e7b0cdf49939d60c95fd560eb5adcbd375f",
          "blockNumber": "0x14b61b",
          "transactionHash": "0x38ac94305a62aa67fdffec85c31cca92bc08682ff3b65065ec39c5ecd05a26b8",
          "transactionIndex": "0x1",
          "logIndex": "0x0",
          "removed": false
        },
        {
          "address": "0xd84ab43d7f2f99339657e4bfae3c955be8d3099c",
          "topics": [
            "0x788dbc1b7152732178210e7f4d9d010ef016f9eafbe66786bd7169f56e0c353a",
            "0x43db2ea2bdfae1470ec7f51c2a1acde5d70db1eb17e3514216853d1ceef9635a"
          ],
          "data": "0x",
          "blockHash": "0x5383a9ef9c8f89860230b25e234a5e7b0cdf49939d60c95fd560eb5adcbd375f",
          "blockNumber": "0x14b61b",
          "transactionHash": "0x38ac94305a62aa67fdffec85c31cca92bc08682ff3b65065ec39c5ecd05a26b8",
          "transactionIndex": "0x1",
          "logIndex": "0x1",
          "removed": false
        },
        {
          "address": "0x8abcae02b22a5267a94689f417824eff177da0df",
          "topics": [
            "0xbcfd114620ceaba6c297bf4337e8da817105a7c78fab1cc17a0f81cc1bf08beb"
          ],
          "data": "0x00000000000000000000000000000000000000000000000000000000000021050000000000000000000000008abcae02b22a5267a94689f417824eff177da0df000000000000000000000000000000000000000000000000000000000000008043db2ea2bdfae1470ec7f51c2a1acde5d70db1eb17e3514216853d1ceef9635a000000000000000000000000000000000000000000000000000000000000002548656c6c6f2066726f6d2045766572636c6561722053746167696e6720746f204261736521000000000000000000000000000000000000000000000000000000",
          "blockHash": "0x5383a9ef9c8f89860230b25e234a5e7b0cdf49939d60c95fd560eb5adcbd375f",
          "blockNumber": "0x14b61b",
          "transactionHash": "0x38ac94305a62aa67fdffec85c31cca92bc08682ff3b65065ec39c5ecd05a26b8",
          "transactionIndex": "0x1",
          "logIndex": "0x2",
          "removed": false
        }
      ],
      "logsBloom": "0x00000000000000800000000000000000000000000000000000000080000000000020000000000000000000000000000000000000000000000001000000000800000000000000000000000000000000000002080000100000000000000000000000010000000000000000020000000000000000000000040000002004001000000000000000000000000000000000000000004000000000000000000020080000000040000000000000000000000000000000000000001100000000000000000000001000000000000000000000000000000001000000000000000000000000000000410000000000000000040000000000000000000000000000008000000100",
      "type": "0x2",
      "transactionHash": "0x38ac94305a62aa67fdffec85c31cca92bc08682ff3b65065ec39c5ecd05a26b8",
      "transactionIndex": "0x1",
      "blockHash": "0x5383a9ef9c8f89860230b25e234a5e7b0cdf49939d60c95fd560eb5adcbd375f",
      "blockNumber": "0x14b61b",
      "gasUsed": "0x11bac",
      "effectiveGasPrice": "0x5f5e100",
      "from": "0xcc3dee77dd3a77dc623d6c8b931a1b0aab56d81d",
      "to": "0x8abcae02b22a5267a94689f417824eff177da0df",
      "contractAddress": null,
      "gasUsedForL1": "0x421",
      "l1BlockNumber": "0x156ff03"
    }
  ],
  "libraries": [],
  "pending": [],
  "returns": {},
  "timestamp": 1747191524,
  "chain": 25327,
  "commit": "6685d933b"
}