{
  "transactions": [
    {
      "hash": "0x63ddbe526ef72add4ec01dcf26433f1f5fd20cb096e32050de6e9b3c97969910",
      "transactionType": "CALL",
      "contractName": null,
      "contractAddress": "0x56088923b84121327b85802dcca1a84478eb1ea2",
      "function": "sendMessage(uint32,address,bytes)",
      "arguments": [
        "8453",
        "0xc81686396C44dD0f39A76de2BeC5CCE2eE3d4548",
        "0x48656c6c6f2066726f6d2045766572636c6561722053746167696e6720746f204261736521"
      ],
      "transaction": {
        "from": "0xcc3dee77dd3a77dc623d6c8b931a1b0aab56d81d",
        "to": "0x56088923b84121327b85802dcca1a84478eb1ea2",
        "gas": "0x198d4",
        "value": "0x0",
        "input": "0x101ac9ee0000000000000000000000000000000000000000000000000000000000002105000000000000000000000000c81686396c44dd0f39a76de2bec5cce2ee3d45480000000000000000000000000000000000000000000000000000000000000060000000000000000000000000000000000000000000000000000000000000002548656c6c6f2066726f6d2045766572636c6561722053746167696e6720746f204261736521000000000000000000000000000000000000000000000000000000",
        "nonce": "0x1b",
        "chainId": "0x62ef"
      },
      "additionalContracts": [],
      "isFixedGasLimit": false
    }
  ],
  "receipts": [
    {
      "status": "0x1",
      "cumulativeGasUsed": "0x11c8d",
      "logs": [
        {
          "address": "0xd84ab43d7f2f99339657e4bfae3c955be8d3099c",
          "topics": [
            "0x769f711d20c679153d382254f59892613b58a97cc876b249134ac25c80f9c814",
            "0x00000000000000000000000046cb3da13fd222887ef869e2db5ab73c854fcf0d",
            "0x0000000000000000000000000000000000000000000000000000000000002105",
            "0x000000000000000000000000c81686396c44dd0f39a76de2bec5cce2ee3d4548"
          ],
          "data": "0x000000000000000000000000000000000000000000000000000000000000002000000000000000000000000000000000000000000000000000000000000000720300000005000062ef00000000000000000000000046cb3da13fd222887ef869e2db5ab73c854fcf0d00002105000000000000000000000000c81686396c44dd0f39a76de2bec5cce2ee3d454848656c6c6f2066726f6d2045766572636c6561722053746167696e6720746f2042617365210000000000000000000000000000",
          "blockHash": "0x16e84094098f009e6df20412fe49181b96ca1fde2aa91f037b728bf56ff0c3aa",
          "blockNumber": "0x14cb34",
          "transactionHash": "0x63ddbe526ef72add4ec01dcf26433f1f5fd20cb096e32050de6e9b3c97969910",
          "transactionIndex": "0x1",
          "logIndex": "0x0",
          "removed": false
        },
        {
          "address": "0xd84ab43d7f2f99339657e4bfae3c955be8d3099c",
          "topics": [
            "0x788dbc1b7152732178210e7f4d9d010ef016f9eafbe66786bd7169f56e0c353a",
            "0x086c561d4c64d6c24273e9717ce723b77377154626094d83abde4d7168c301f1"
          ],
          "data": "0x",
          "blockHash": "0x16e84094098f009e6df20412fe49181b96ca1fde2aa91f037b728bf56ff0c3aa",
          "blockNumber": "0x14cb34",
          "transactionHash": "0x63ddbe526ef72add4ec01dcf26433f1f5fd20cb096e32050de6e9b3c97969910",
          "transactionIndex": "0x1",
          "logIndex": "0x1",
          "removed": false
        },
        {
          "address": "0x56088923b84121327b85802dcca1a84478eb1ea2",
          "topics": [
            "0xbcfd114620ceaba6c297bf4337e8da817105a7c78fab1cc17a0f81cc1bf08beb"
          ],
          "data": "0x0000000000000000000000000000000000000000000000000000000000002105000000000000000000000000c81686396c44dd0f39a76de2bec5cce2ee3d45480000000000000000000000000000000000000000000000000000000000000080086c561d4c64d6c24273e9717ce723b77377154626094d83abde4d7168c301f1000000000000000000000000000000000000000000000000000000000000002548656c6c6f2066726f6d2045766572636c6561722053746167696e6720746f204261736521000000000000000000000000000000000000000000000000000000",
          "blockHash": "0x16e84094098f009e6df20412fe49181b96ca1fde2aa91f037b728bf56ff0c3aa",
          "blockNumber": "0x14cb34",
          "transactionHash": "0x63ddbe526ef72add4ec01dcf26433f1f5fd20cb096e32050de6e9b3c97969910",
          "transactionIndex": "0x1",
          "logIndex": "0x2",
          "removed": false
        }
      ],
      "logsBloom": "0x00000000000000800000000000000000000000000000000000000080000000000020000000000000000000008000002000000000000000000001000000000800000000000000000000000000000000000000080000100000000000000000000000010000000000000002020002000000000000000000080000003004001000000000000010080000000000000000000000000000000000000000000020000000000000000000000000000000000000000000000000000000000000000000000000001000000000000000000000000000000000000000000000000000100000000000400000000000000000040000000000000000000000000000008000000100",
      "type": "0x2",
      "transactionHash": "0x63ddbe526ef72add4ec01dcf26433f1f5fd20cb096e32050de6e9b3c97969910",
      "transactionIndex": "0x1",
      "blockHash": "0x16e84094098f009e6df20412fe49181b96ca1fde2aa91f037b728bf56ff0c3aa",
      "blockNumber": "0x14cb34",
      "gasUsed": "0x11c8d",
      "effectiveGasPrice": "0x5f5e100",
      "from": "0xcc3dee77dd3a77dc623d6c8b931a1b0aab56d81d",
      "to": "0x56088923b84121327b85802dcca1a84478eb1ea2",
      "contractAddress": null,
      "gasUsedForL1": "0x502",
      "l1BlockNumber": "0x1570f6d"
    }
  ],
  "libraries": [],
  "pending": [],
  "returns": {},
  "timestamp": 1747242636,
  "chain": 25327,
  "commit": "d93c58461"
}