{
  "transactions": [
    {
      "hash": "0x922b495143d75bc7ed1cf48a15701fec5bf22d200e7db5493cdb7cc4d678d506",
      "transactionType": "CALL",
      "contractName": null,
      "contractAddress": "0x02b6ece368d5de946edb4710c7579f7fd9e6244e",
      "function": "sendMessage(uint32,address,bytes)",
      "arguments": [
        "8453",
        "0xC81686396c44dd0f39A76De2Bec5CcE2ee3d4549",
        "0x48656c6c6f2066726f6d2045766572636c6561722053746167696e6720746f204261736521"
      ],
      "transaction": {
        "from": "0xcc3dee77dd3a77dc623d6c8b931a1b0aab56d81d",
        "to": "0x02b6ece368d5de946edb4710c7579f7fd9e6244e",
        "gas": "0x1bc9a",
        "value": "0x0",
        "input": "0x101ac9ee0000000000000000000000000000000000000000000000000000000000002105000000000000000000000000c81686396c44dd0f39a76de2bec5cce2ee3d45490000000000000000000000000000000000000000000000000000000000000060000000000000000000000000000000000000000000000000000000000000002548656c6c6f2066726f6d2045766572636c6561722053746167696e6720746f204261736521000000000000000000000000000000000000000000000000000000",
        "nonce": "0x33",
        "chainId": "0x62ef"
      },
      "additionalContracts": [],
      "isFixedGasLimit": false
    }
  ],
  "receipts": [
    {
      "status": "0x1",
      "cumulativeGasUsed": "0x13231",
      "logs": [
        {
          "address": "0xd84ab43d7f2f99339657e4bfae3c955be8d3099c",
          "topics": [
            "0x769f711d20c679153d382254f59892613b58a97cc876b249134ac25c80f9c814",
            "0x00000000000000000000000002b6ece368d5de946edb4710c7579f7fd9e6244e",
            "0x0000000000000000000000000000000000000000000000000000000000002105",
            "0x000000000000000000000000c81686396c44dd0f39a76de2bec5cce2ee3d4549"
          ],
          "data": "0x00000000000000000000000000000000000000000000000000000000000000200000000000000000000000000000000000000000000000000000000000000072030000000b000062ef00000000000000000000000002b6ece368d5de946edb4710c7579f7fd9e6244e00002105000000000000000000000000c81686396c44dd0f39a76de2bec5cce2ee3d454948656c6c6f2066726f6d2045766572636c6561722053746167696e6720746f2042617365210000000000000000000000000000",
          "blockHash": "0xfdced00a584dfcfe9fbeda87096a24b7907ee2918c33bf84a461d7fb20f6cba9",
          "blockNumber": "0x157fb8",
          "transactionHash": "0x922b495143d75bc7ed1cf48a15701fec5bf22d200e7db5493cdb7cc4d678d506",
          "transactionIndex": "0x1",
          "logIndex": "0x0",
          "removed": false
        },
        {
          "address": "0xd84ab43d7f2f99339657e4bfae3c955be8d3099c",
          "topics": [
            "0x788dbc1b7152732178210e7f4d9d010ef016f9eafbe66786bd7169f56e0c353a",
            "0x6df82eeb36ea114ae0090d01cff81f41a5aa624dd8e8becedc2e9183019a9637"
          ],
          "data": "0x",
          "blockHash": "0xfdced00a584dfcfe9fbeda87096a24b7907ee2918c33bf84a461d7fb20f6cba9",
          "blockNumber": "0x157fb8",
          "transactionHash": "0x922b495143d75bc7ed1cf48a15701fec5bf22d200e7db5493cdb7cc4d678d506",
          "transactionIndex": "0x1",
          "logIndex": "0x1",
          "removed": false
        },
        {
          "address": "0x02b6ece368d5de946edb4710c7579f7fd9e6244e",
          "topics": [
            "0xbcfd114620ceaba6c297bf4337e8da817105a7c78fab1cc17a0f81cc1bf08beb"
          ],
          "data": "0x0000000000000000000000000000000000000000000000000000000000002105000000000000000000000000c81686396c44dd0f39a76de2bec5cce2ee3d454900000000000000000000000000000000000000000000000000000000000000806df82eeb36ea114ae0090d01cff81f41a5aa624dd8e8becedc2e9183019a9637000000000000000000000000000000000000000000000000000000000000002548656c6c6f2066726f6d2045766572636c6561722053746167696e6720746f204261736521000000000000000000000000000000000000000000000000000000",
          "blockHash": "0xfdced00a584dfcfe9fbeda87096a24b7907ee2918c33bf84a461d7fb20f6cba9",
          "blockNumber": "0x157fb8",
          "transactionHash": "0x922b495143d75bc7ed1cf48a15701fec5bf22d200e7db5493cdb7cc4d678d506",
          "transactionIndex": "0x1",
          "logIndex": "0x2",
          "removed": false
        }
      ],
      "logsBloom": "0x00000000000200800000000000000000000000000000000000000000000000000020000000002000000000000000000008000000000000000001000000000800000000000000000000000000000000000400080000100000000000000000000000010000000000010000020001000000000000000000000000000004001000000000000000000000000000000000000000000000000000000000000020000000000040000000000000000200000000000000000000000000000000000000000000001000000000000000000800000000000000000080000000000000000000000800400000000000000000000000000000000000800000000000008000000100",
      "type": "0x2",
      "transactionHash": "0x922b495143d75bc7ed1cf48a15701fec5bf22d200e7db5493cdb7cc4d678d506",
      "transactionIndex": "0x1",
      "blockHash": "0xfdced00a584dfcfe9fbeda87096a24b7907ee2918c33bf84a461d7fb20f6cba9",
      "blockNumber": "0x157fb8",
      "gasUsed": "0x13231",
      "effectiveGasPrice": "0x5f5e100",
      "from": "0xcc3dee77dd3a77dc623d6c8b931a1b0aab56d81d",
      "to": "0x02b6ece368d5de946edb4710c7579f7fd9e6244e",
      "contractAddress": null,
      "gasUsedForL1": "0x230",
      "l1BlockNumber": "0x1579e5d"
    }
  ],
  "libraries": [],
  "pending": [],
  "returns": {},
  "timestamp": 1747686594,
  "chain": 25327,
  "commit": "4f07f17eb"
}