{
  "transactions": [
    {
      "hash": "0x81f538881654e4eb43e5442c11356aace2019e3235c5cdaf0e53333814c1e372",
      "transactionType": "CALL",
      "contractName": null,
      "contractAddress": "0x46cb3da13fd222887ef869e2db5ab73c854fcf0d",
      "function": "setDomainMailbox(uint32,address)",
      "arguments": [
        "8453",
        "0xd84ab43D7F2F99339657E4bfaE3C955bE8d3099C"
      ],
      "transaction": {
        "from": "0xcc3dee77dd3a77dc623d6c8b931a1b0aab56d81d",
        "to": "0x46cb3da13fd222887ef869e2db5ab73c854fcf0d",
        "gas": "0x140ce",
        "value": "0x0",
        "input": "0x814ff1170000000000000000000000000000000000000000000000000000000000002105000000000000000000000000d84ab43d7f2f99339657e4bfae3c955be8d3099c",
        "nonce": "0xc",
        "chainId": "0x62ef"
      },
      "additionalContracts": [],
      "isFixedGasLimit": false
    }
  ],
  "receipts": [
    {
      "status": "0x1",
      "cumulativeGasUsed": "0xe10a",
      "logs": [
        {
          "address": "0x46cb3da13fd222887ef869e2db5ab73c854fcf0d",
          "topics": [
            "0xd4df71e10b5bc416e8ed73eabc542d8b74056da7c588a02a4360dc94f1569a28",
            "0x0000000000000000000000000000000000000000000000000000000000002105",
            "0x000000000000000000000000d84ab43d7f2f99339657e4bfae3c955be8d3099c"
          ],
          "data": "0x",
          "blockHash": "0x7320584571aac06ac5a725cde5ef63e4f8c5ca47f51e74ab489bbfa5668c443c",
          "blockNumber": "0x14b44a",
          "transactionHash": "0x81f538881654e4eb43e5442c11356aace2019e3235c5cdaf0e53333814c1e372",
          "transactionIndex": "0x1",
          "logIndex": "0x0",
          "removed": false
        }
      ],
      "logsBloom": "0x00000000000000000000000000000000000000000000000000000000000000010000000000000000000001000000000000000000000000000001000000000010000400000000000000000000000000000000000000000000000000000000000000010000000000000000000000000000000000000000000000000000000000000000000000000000000000000000000000000000200010000000000020000000020000001000000000000000000000000000000000000000000000000000000000000000000000000000000000000800000000000000000000000000000000000000000000000000000000000000000000000000000000000000000000000000",
      "type": "0x2",
      "transactionHash": "0x81f538881654e4eb43e5442c11356aace2019e3235c5cdaf0e53333814c1e372",
      "transactionIndex": "0x1",
      "blockHash": "0x7320584571aac06ac5a725cde5ef63e4f8c5ca47f51e74ab489bbfa5668c443c",
      "blockNumber": "0x14b44a",
      "gasUsed": "0xe10a",
      "effectiveGasPrice": "0x5f5e100",
      "from": "0xcc3dee77dd3a77dc623d6c8b931a1b0aab56d81d",
      "to": "0x46cb3da13fd222887ef869e2db5ab73c854fcf0d",
      "contractAddress": null,
      "gasUsedForL1": "0x5af",
      "l1BlockNumber": "0x156fd8b"
    }
  ],
  "libraries": [],
  "pending": [],
  "returns": {},
  "timestamp": 1747186929,
  "chain": 25327,
  "commit": "d02cf3d73"
}