{
  "transactions": [
    {
      "hash": "0x79ac4988154a10ff56a75fa2d505288d0aa7361837db5cada8296baa2d6e065d",
      "transactionType": "CALL",
      "contractName": null,
      "contractAddress": "0xc2f4e5df683a44e4b432958cdfa7340651206119",
      "function": "sendMessage(uint32,address,bytes)",
      "arguments": [
        "33111",
        "0x9dB781BB4f64f754c01652De4f2D452548105f4d",
        "0x48656c6c6f2066726f6d20423320746f2041706521"
      ],
      "transaction": {
        "from": "0xcc3dee77dd3a77dc623d6c8b931a1b0aab56d81d",
        "to": "0xc2f4e5df683a44e4b432958cdfa7340651206119",
        "gas": "0x172fa",
        "value": "0x0",
        "input": "0x101ac9ee00000000000000000000000000000000000000000000000000000000000081570000000000000000000000009db781bb4f64f754c01652de4f2d452548105f4d0000000000000000000000000000000000000000000000000000000000000060000000000000000000000000000000000000000000000000000000000000001548656c6c6f2066726f6d20423320746f20417065210000000000000000000000",
        "nonce": "0x2b",
        "chainId": "0x7c9"
      },
      "additionalContracts": [],
      "isFixedGasLimit": false
    }
  ],
  "receipts": [
    {
      "status": "0x1",
      "cumulativeGasUsed": "0x1a8b8",
      "logs": [
        {
          "address": "0x840e5aada7a7aab5f06c5d3152512a246792183f",
          "topics": [
            "0x769f711d20c679153d382254f59892613b58a97cc876b249134ac25c80f9c814",
            "0x000000000000000000000000c2f4e5df683a44e4b432958cdfa7340651206119",
            "0x0000000000000000000000000000000000000000000000000000000000008157",
            "0x0000000000000000000000009db781bb4f64f754c01652de4f2d452548105f4d"
          ],
          "data": "0x000000000000000000000000000000000000000000000000000000000000002000000000000000000000000000000000000000000000000000000000000000620300000004000007c9000000000000000000000000c2f4e5df683a44e4b432958cdfa7340651206119000081570000000000000000000000009db781bb4f64f754c01652de4f2d452548105f4d48656c6c6f2066726f6d20423320746f2041706521000000000000000000000000000000000000000000000000000000000000",
          "blockHash": "0xfd74025bb02a3022d198c860664369d285ca73b50cb0fb603fd99c1b3305f4b8",
          "blockNumber": "0x1f205fc",
          "transactionHash": "0x79ac4988154a10ff56a75fa2d505288d0aa7361837db5cada8296baa2d6e065d",
          "transactionIndex": "0x1",
          "logIndex": "0x0",
          "removed": false
        },
        {
          "address": "0x840e5aada7a7aab5f06c5d3152512a246792183f",
          "topics": [
            "0x788dbc1b7152732178210e7f4d9d010ef016f9eafbe66786bd7169f56e0c353a",
            "0xa0e00c4b4b29effd5adc28c28cb5245fe5dd0f8c5f78febe0f9d214e23a2b546"
          ],
          "data": "0x",
          "blockHash": "0xfd74025bb02a3022d198c860664369d285ca73b50cb0fb603fd99c1b3305f4b8",
          "blockNumber": "0x1f205fc",
          "transactionHash": "0x79ac4988154a10ff56a75fa2d505288d0aa7361837db5cada8296baa2d6e065d",
          "transactionIndex": "0x1",
          "logIndex": "0x1",
          "removed": false
        },
        {
          "address": "0xc2f4e5df683a44e4b432958cdfa7340651206119",
          "topics": [
            "0xbcfd114620ceaba6c297bf4337e8da817105a7c78fab1cc17a0f81cc1bf08beb"
          ],
          "data": "0x00000000000000000000000000000000000000000000000000000000000081570000000000000000000000009db781bb4f64f754c01652de4f2d452548105f4d0000000000000000000000000000000000000000000000000000000000000080a0e00c4b4b29effd5adc28c28cb5245fe5dd0f8c5f78febe0f9d214e23a2b546000000000000000000000000000000000000000000000000000000000000001548656c6c6f2066726f6d20423320746f20417065210000000000000000000000",
          "blockHash": "0xfd74025bb02a3022d198c860664369d285ca73b50cb0fb603fd99c1b3305f4b8",
          "blockNumber": "0x1f205fc",
          "transactionHash": "0x79ac4988154a10ff56a75fa2d505288d0aa7361837db5cada8296baa2d6e065d",
          "transactionIndex": "0x1",
          "logIndex": "0x2",
          "removed": false
        }
      ],
      "logsBloom": "0x00000000000000800000040000000000000200000000000000000000000000000200000000000000000000200000010000000000000000002000000000000800000000000000000000000000000000000000080000100000000000000000000000000804000000080000020000000000000000000000000000000004001000000000000000000000000000000000000000000000000000000000000000000000000020000000000000000000000200000000000000000000000000000000010000001000000000000000000000400000000800000100000000000000000000000000400000000040000000000000008000000000000000000000000000000000",
      "type": "0x2",
      "transactionHash": "0x79ac4988154a10ff56a75fa2d505288d0aa7361837db5cada8296baa2d6e065d",
      "transactionIndex": "0x1",
      "blockHash": "0xfd74025bb02a3022d198c860664369d285ca73b50cb0fb603fd99c1b3305f4b8",
      "blockNumber": "0x1f205fc",
      "gasUsed": "0xfda9",
      "effectiveGasPrice": "0xfd",
      "from": "0xcc3dee77dd3a77dc623d6c8b931a1b0aab56d81d",
      "to": "0xc2f4e5df683a44e4b432958cdfa7340651206119",
      "contractAddress": null,
      "l1BaseFeeScalar": "0xf4240",
      "l1BlobBaseFee": "0x1",
      "l1BlobBaseFeeScalar": "0x0",
      "l1Fee": "0x11d27c",
      "l1GasPrice": "0x189",
      "l1GasUsed": "0xb9c"
    }
  ],
  "libraries": [],
  "pending": [],
  "returns": {},
  "timestamp": 1746812446,
  "chain": 1993,
  "commit": "e58da4007"
}