{
  "transactions": [
    {
      "hash": "0xb453c0e2d00a823c844f48e571915898824e0d274801edc7afc6ebdcce34a387",
      "transactionType": "CALL",
      "contractName": null,
      "contractAddress": "0x72e64c23b13629edb7e61c81b4c06afe8e7e5550",
      "function": "sendMessage(uint32,address,bytes)",
      "arguments": [
        "33111",
        "0x3cD986B41583beEaa96E9f8CF79a304469C58E9f",
        "0x48656c6c6f2066726f6d20423320746f2041706521"
      ],
      "transaction": {
        "from": "0xcc3dee77dd3a77dc623d6c8b931a1b0aab56d81d",
        "to": "0x72e64c23b13629edb7e61c81b4c06afe8e7e5550",
        "gas": "0x2365b",
        "value": "0x0",
        "input": "0x101ac9ee00000000000000000000000000000000000000000000000000000000000081570000000000000000000000003cd986b41583beeaa96e9f8cf79a304469c58e9f0000000000000000000000000000000000000000000000000000000000000060000000000000000000000000000000000000000000000000000000000000001548656c6c6f2066726f6d20423320746f20417065210000000000000000000000",
        "nonce": "0x22",
        "chainId": "0x7c9"
      },
      "additionalContracts": [],
      "isFixedGasLimit": false
    }
  ],
  "receipts": [
    {
      "status": "0x1",
      "cumulativeGasUsed": "0x23934",
      "logs": [
        {
          "address": "0x840e5aada7a7aab5f06c5d3152512a246792183f",
          "topics": [
            "0x769f711d20c679153d382254f59892613b58a97cc876b249134ac25c80f9c814",
            "0x00000000000000000000000072e64c23b13629edb7e61c81b4c06afe8e7e5550",
            "0x0000000000000000000000000000000000000000000000000000000000008157",
            "0x0000000000000000000000003cd986b41583beeaa96e9f8cf79a304469c58e9f"
          ],
          "data": "0x000000000000000000000000000000000000000000000000000000000000002000000000000000000000000000000000000000000000000000000000000000620300000000000007c900000000000000000000000072e64c23b13629edb7e61c81b4c06afe8e7e5550000081570000000000000000000000003cd986b41583beeaa96e9f8cf79a304469c58e9f48656c6c6f2066726f6d20423320746f2041706521000000000000000000000000000000000000000000000000000000000000",
          "blockHash": "0x41cf7e9748d3ed74250c0112dc010a51cfe6836ed9dd779670e68db4dd24489e",
          "blockNumber": "0x1ed2a8e",
          "transactionHash": "0xb453c0e2d00a823c844f48e571915898824e0d274801edc7afc6ebdcce34a387",
          "transactionIndex": "0x1",
          "logIndex": "0x0",
          "removed": false
        },
        {
          "address": "0x840e5aada7a7aab5f06c5d3152512a246792183f",
          "topics": [
            "0x788dbc1b7152732178210e7f4d9d010ef016f9eafbe66786bd7169f56e0c353a",
            "0xb93914df9dfbd6f713db86888e13a89c491900cf60303999130b381a9491288d"
          ],
          "data": "0x",
          "blockHash": "0x41cf7e9748d3ed74250c0112dc010a51cfe6836ed9dd779670e68db4dd24489e",
          "blockNumber": "0x1ed2a8e",
          "transactionHash": "0xb453c0e2d00a823c844f48e571915898824e0d274801edc7afc6ebdcce34a387",
          "transactionIndex": "0x1",
          "logIndex": "0x1",
          "removed": false
        },
        {
          "address": "0x72e64c23b13629edb7e61c81b4c06afe8e7e5550",
          "topics": [
            "0xbcfd114620ceaba6c297bf4337e8da817105a7c78fab1cc17a0f81cc1bf08beb"
          ],
          "data": "0x00000000000000000000000000000000000000000000000000000000000081570000000000000000000000003cd986b41583beeaa96e9f8cf79a304469c58e9f0000000000000000000000000000000000000000000000000000000000000080b93914df9dfbd6f713db86888e13a89c491900cf60303999130b381a9491288d000000000000000000000000000000000000000000000000000000000000001548656c6c6f2066726f6d20423320746f20417065210000000000000000000000",
          "blockHash": "0x41cf7e9748d3ed74250c0112dc010a51cfe6836ed9dd779670e68db4dd24489e",
          "blockNumber": "0x1ed2a8e",
          "transactionHash": "0xb453c0e2d00a823c844f48e571915898824e0d274801edc7afc6ebdcce34a387",
          "transactionIndex": "0x1",
          "logIndex": "0x2",
          "removed": false
        }
      ],
      "logsBloom": "0x00000000000000800000000000000000000000000000000000000000000000000200000220000000010000000000000000040000800000002000000000000800000000000000000000000000000000000000080000100000000010000000000000000004000000080000020000000000000000000000000000000004001000000000000000000000000000000000001000000000000000000000000000000000000000000000000000000000000000000000000000000000000000000000000000001000000000000000020000000000000800000100000000000000080008000000400000000000000000002000000000000000000000000200000000000000",
      "type": "0x2",
      "transactionHash": "0xb453c0e2d00a823c844f48e571915898824e0d274801edc7afc6ebdcce34a387",
      "transactionIndex": "0x1",
      "blockHash": "0x41cf7e9748d3ed74250c0112dc010a51cfe6836ed9dd779670e68db4dd24489e",
      "blockNumber": "0x1ed2a8e",
      "gasUsed": "0x18341",
      "effectiveGasPrice": "0xfd",
      "from": "0xcc3dee77dd3a77dc623d6c8b931a1b0aab56d81d",
      "to": "0x72e64c23b13629edb7e61c81b4c06afe8e7e5550",
      "contractAddress": null,
      "l1BaseFeeScalar": "0xf4240",
      "l1BlobBaseFee": "0x1",
      "l1BlobBaseFeeScalar": "0x0",
      "l1Fee": "0x116a00",
      "l1GasPrice": "0x180",
      "l1GasUsed": "0xb9c"
    }
  ],
  "libraries": [],
  "pending": [],
  "returns": {},
  "timestamp": 1746494126,
  "chain": 1993,
  "commit": "79087e0d7"
}