{
  "transactions": [
    {
      "hash": "0xa9a2fb3f7748af8c0b48e5f71ce2d050b6f3cb6e8a00b6e19d590bd74b0fd3da",
      "transactionType": "CALL",
      "contractName": null,
      "contractAddress": "0x5d68f3ee540cb7f05e24a7a889d84ad5be04a8e6",
      "function": "sendMessage(uint32,address,bytes)",
      "arguments": [
        "33111",
        "0x5d68f3ee540CB7F05E24A7A889D84AD5bE04a8e6",
        "0x48656c6c6f2066726f6d20423320746f2041706521"
      ],
      "transaction": {
        "from": "0xcc3dee77dd3a77dc623d6c8b931a1b0aab56d81d",
        "to": "0x5d68f3ee540cb7f05e24a7a889d84ad5be04a8e6",
        "gas": "0x172fa",
        "value": "0x0",
        "input": "0x101ac9ee00000000000000000000000000000000000000000000000000000000000081570000000000000000000000005d68f3ee540cb7f05e24a7a889d84ad5be04a8e60000000000000000000000000000000000000000000000000000000000000060000000000000000000000000000000000000000000000000000000000000001548656c6c6f2066726f6d20423320746f20417065210000000000000000000000",
        "nonce": "0x15",
        "chainId": "0x7c9"
      },
      "additionalContracts": [],
      "isFixedGasLimit": false
    }
  ],
  "receipts": [
    {
      "status": "0x1",
      "cumulativeGasUsed": "0x1b39c",
      "logs": [
        {
          "address": "0x8abcae02b22a5267a94689f417824eff177da0df",
          "topics": [
            "0x769f711d20c679153d382254f59892613b58a97cc876b249134ac25c80f9c814",
            "0x0000000000000000000000005d68f3ee540cb7f05e24a7a889d84ad5be04a8e6",
            "0x0000000000000000000000000000000000000000000000000000000000008157",
            "0x0000000000000000000000005d68f3ee540cb7f05e24a7a889d84ad5be04a8e6"
          ],
          "data": "0x000000000000000000000000000000000000000000000000000000000000002000000000000000000000000000000000000000000000000000000000000000620300000007000007c90000000000000000000000005d68f3ee540cb7f05e24a7a889d84ad5be04a8e6000081570000000000000000000000005d68f3ee540cb7f05e24a7a889d84ad5be04a8e648656c6c6f2066726f6d20423320746f2041706521000000000000000000000000000000000000000000000000000000000000",
          "blockHash": "0x534c89ff2d95a9f802cdbff313877e71510a663179e34b6aa38f64db8552679c",
          "blockNumber": "0x1ecf808",
          "transactionHash": "0xa9a2fb3f7748af8c0b48e5f71ce2d050b6f3cb6e8a00b6e19d590bd74b0fd3da",
          "transactionIndex": "0x1",
          "logIndex": "0x0",
          "removed": false
        },
        {
          "address": "0x8abcae02b22a5267a94689f417824eff177da0df",
          "topics": [
            "0x788dbc1b7152732178210e7f4d9d010ef016f9eafbe66786bd7169f56e0c353a",
            "0xde0397c73cf6cc5a2ae9158df14d162f1560dc97e5109b12c14e50f605d1ceef"
          ],
          "data": "0x",
          "blockHash": "0x534c89ff2d95a9f802cdbff313877e71510a663179e34b6aa38f64db8552679c",
          "blockNumber": "0x1ecf808",
          "transactionHash": "0xa9a2fb3f7748af8c0b48e5f71ce2d050b6f3cb6e8a00b6e19d590bd74b0fd3da",
          "transactionIndex": "0x1",
          "logIndex": "0x1",
          "removed": false
        },
        {
          "address": "0x5d68f3ee540cb7f05e24a7a889d84ad5be04a8e6",
          "topics": [
            "0xbcfd114620ceaba6c297bf4337e8da817105a7c78fab1cc17a0f81cc1bf08beb"
          ],
          "data": "0x00000000000000000000000000000000000000000000000000000000000081570000000000000000000000005d68f3ee540cb7f05e24a7a889d84ad5be04a8e60000000000000000000000000000000000000000000000000000000000000080de0397c73cf6cc5a2ae9158df14d162f1560dc97e5109b12c14e50f605d1ceef000000000000000000000000000000000000000000000000000000000000001548656c6c6f2066726f6d20423320746f20417065210000000000000000000000",
          "blockHash": "0x534c89ff2d95a9f802cdbff313877e71510a663179e34b6aa38f64db8552679c",
          "blockNumber": "0x1ecf808",
          "transactionHash": "0xa9a2fb3f7748af8c0b48e5f71ce2d050b6f3cb6e8a00b6e19d590bd74b0fd3da",
          "transactionIndex": "0x1",
          "logIndex": "0x2",
          "removed": false
        }
      ],
      "logsBloom": "0x00000000000000800000000000000000000000000000000000000000000000000000000000000000004000000000000000000000000000000000000000000800000000000000000000000000000000000000080001100004000000000000000000000004020000000000020000000080000000000000000000000004001000000000000000000000000000000000000000004000000000000000000000000000000000000000000008000000000000000000000000000000000000400000000000001000000000000000004000000000000801000100000000000000000000000000410000000000000000000000000000000000000000000000000000000000",
      "type": "0x2",
      "transactionHash": "0xa9a2fb3f7748af8c0b48e5f71ce2d050b6f3cb6e8a00b6e19d590bd74b0fd3da",
      "transactionIndex": "0x1",
      "blockHash": "0x534c89ff2d95a9f802cdbff313877e71510a663179e34b6aa38f64db8552679c",
      "blockNumber": "0x1ecf808",
      "gasUsed": "0xfda9",
      "effectiveGasPrice": "0xfd",
      "from": "0xcc3dee77dd3a77dc623d6c8b931a1b0aab56d81d",
      "to": "0x5d68f3ee540cb7f05e24a7a889d84ad5be04a8e6",
      "contractAddress": null,
      "l1BaseFeeScalar": "0xf4240",
      "l1BlobBaseFee": "0x1",
      "l1BlobBaseFeeScalar": "0x0",
      "l1Fee": "0x12f4b8",
      "l1GasPrice": "0x1a2",
      "l1GasUsed": "0xb9c"
    }
  ],
  "libraries": [],
  "pending": [],
  "returns": {},
  "timestamp": 1746481192,
  "chain": 1993,
  "commit": "79087e0d7"
}