{
  "transactions": [
    {
      "hash": "0x06195cb2ccb1c89bd8e08d531efa2ac0d13ed1ea38526b18279f847c01f16de8",
      "transactionType": "CALL",
      "contractName": null,
      "contractAddress": "0xc81686396c44dd0f39a76de2bec5cce2ee3d4548",
      "function": "sendMessage(uint32,address,bytes)",
      "arguments": [
        "33111",
        "0x593cA6a919b9946Aa8a9aBFd7C499F3fEe8D7A9E",
        "0x48656c6c6f2066726f6d20423320746f2041706521"
      ],
      "transaction": {
        "from": "0xcc3dee77dd3a77dc623d6c8b931a1b0aab56d81d",
        "to": "0xc81686396c44dd0f39a76de2bec5cce2ee3d4548",
        "gas": "0x172fa",
        "value": "0x0",
        "input": "0x101ac9ee0000000000000000000000000000000000000000000000000000000000008157000000000000000000000000593ca6a919b9946aa8a9abfd7c499f3fee8d7a9e0000000000000000000000000000000000000000000000000000000000000060000000000000000000000000000000000000000000000000000000000000001548656c6c6f2066726f6d20423320746f20417065210000000000000000000000",
        "nonce": "0x19",
        "chainId": "0x7c9"
      },
      "additionalContracts": [],
      "isFixedGasLimit": false
    }
  ],
  "receipts": [
    {
      "status": "0x1",
      "cumulativeGasUsed": "0x1b39c",
      "logs": [
        {
          "address": "0x8abcae02b22a5267a94689f417824eff177da0df",
          "topics": [
            "0x769f711d20c679153d382254f59892613b58a97cc876b249134ac25c80f9c814",
            "0x000000000000000000000000c81686396c44dd0f39a76de2bec5cce2ee3d4548",
            "0x0000000000000000000000000000000000000000000000000000000000008157",
            "0x000000000000000000000000593ca6a919b9946aa8a9abfd7c499f3fee8d7a9e"
          ],
          "data": "0x000000000000000000000000000000000000000000000000000000000000002000000000000000000000000000000000000000000000000000000000000000620300000008000007c9000000000000000000000000c81686396c44dd0f39a76de2bec5cce2ee3d454800008157000000000000000000000000593ca6a919b9946aa8a9abfd7c499f3fee8d7a9e48656c6c6f2066726f6d20423320746f2041706521000000000000000000000000000000000000000000000000000000000000",
          "blockHash": "0x31841fab9dad50b2a49fa05827f73907ba5c50ea8b17004cf9cce04219c49add",
          "blockNumber": "0x1ed2568",
          "transactionHash": "0x06195cb2ccb1c89bd8e08d531efa2ac0d13ed1ea38526b18279f847c01f16de8",
          "transactionIndex": "0x1",
          "logIndex": "0x0",
          "removed": false
        },
        {
          "address": "0x8abcae02b22a5267a94689f417824eff177da0df",
          "topics": [
            "0x788dbc1b7152732178210e7f4d9d010ef016f9eafbe66786bd7169f56e0c353a",
            "0x0dec120ba175c42b2533457b4326746f8bf4c3a2d5e75400806d762e5f356b96"
          ],
          "data": "0x",
          "blockHash": "0x31841fab9dad50b2a49fa05827f73907ba5c50ea8b17004cf9cce04219c49add",
          "blockNumber": "0x1ed2568",
          "transactionHash": "0x06195cb2ccb1c89bd8e08d531efa2ac0d13ed1ea38526b18279f847c01f16de8",
          "transactionIndex": "0x1",
          "logIndex": "0x1",
          "removed": false
        },
        {
          "address": "0xc81686396c44dd0f39a76de2bec5cce2ee3d4548",
          "topics": [
            "0xbcfd114620ceaba6c297bf4337e8da817105a7c78fab1cc17a0f81cc1bf08beb"
          ],
          "data": "0x0000000000000000000000000000000000000000000000000000000000008157000000000000000000000000593ca6a919b9946aa8a9abfd7c499f3fee8d7a9e00000000000000000000000000000000000000000000000000000000000000800dec120ba175c42b2533457b4326746f8bf4c3a2d5e75400806d762e5f356b96000000000000000000000000000000000000000000000000000000000000001548656c6c6f2066726f6d20423320746f20417065210000000000000000000000",
          "blockHash": "0x31841fab9dad50b2a49fa05827f73907ba5c50ea8b17004cf9cce04219c49add",
          "blockNumber": "0x1ed2568",
          "transactionHash": "0x06195cb2ccb1c89bd8e08d531efa2ac0d13ed1ea38526b18279f847c01f16de8",
          "transactionIndex": "0x1",
          "logIndex": "0x2",
          "removed": false
        }
      ],
      "logsBloom": "0x00000000000000c00000000000000000000000000000000000000000000000000000000000000000000000008000000001000000000000000000000000000800000000800000000000000000000000000000080000100000080000000000000000000004000000000000020000000000000000000000040000001004001000000008000000080000000000000020000000004000000000000000000000000000000000000000000000000000000000000000000000000000000000000000000000001000000000000000000000000000000801000100000000000000000000400000410000000008000000000000000000000000000000000000000000000000",
      "type": "0x2",
      "transactionHash": "0x06195cb2ccb1c89bd8e08d531efa2ac0d13ed1ea38526b18279f847c01f16de8",
      "transactionIndex": "0x1",
      "blockHash": "0x31841fab9dad50b2a49fa05827f73907ba5c50ea8b17004cf9cce04219c49add",
      "blockNumber": "0x1ed2568",
      "gasUsed": "0xfda9",
      "effectiveGasPrice": "0xfd",
      "from": "0xcc3dee77dd3a77dc623d6c8b931a1b0aab56d81d",
      "to": "0xc81686396c44dd0f39a76de2bec5cce2ee3d4548",
      "contractAddress": null,
      "l1BaseFeeScalar": "0xf4240",
      "l1BlobBaseFee": "0x1",
      "l1BlobBaseFeeScalar": "0x0",
      "l1Fee": "0x1152c8",
      "l1GasPrice": "0x17e",
      "l1GasUsed": "0xb9c"
    }
  ],
  "libraries": [],
  "pending": [],
  "returns": {},
  "timestamp": 1746492808,
  "chain": 1993,
  "commit": "79087e0d7"
}