{
  "transactions": [
    {
      "hash": "0x74391fe4610d00927e052531ec6bba8fb1e2a2c0eb6d8b7efd29eba04ade0b15",
      "transactionType": "CALL",
      "contractName": null,
      "contractAddress": "0xf689811ed7fed46ae6ca9251d62d9d1cc528ba5a",
      "function": "sendMessage(uint32,address,bytes)",
      "arguments": [
        "33111",
        "0x840E5AaDa7A7aaB5F06C5D3152512A246792183F",
        "0x48656c6c6f2066726f6d20423320746f2041706521"
      ],
      "transaction": {
        "from": "0xcc3dee77dd3a77dc623d6c8b931a1b0aab56d81d",
        "to": "0xf689811ed7fed46ae6ca9251d62d9d1cc528ba5a",
        "gas": "0x172fa",
        "value": "0x0",
        "input": "0x101ac9ee0000000000000000000000000000000000000000000000000000000000008157000000000000000000000000840e5aada7a7aab5f06c5d3152512a246792183f0000000000000000000000000000000000000000000000000000000000000060000000000000000000000000000000000000000000000000000000000000001548656c6c6f2066726f6d20423320746f20417065210000000000000000000000",
        "nonce": "0x2d",
        "chainId": "0x7c9"
      },
      "additionalContracts": [],
      "isFixedGasLimit": false
    }
  ],
  "receipts": [
    {
      "status": "0x1",
      "cumulativeGasUsed": "0x1be8c",
      "logs": [
        {
          "address": "0x840e5aada7a7aab5f06c5d3152512a246792183f",
          "topics": [
            "0x769f711d20c679153d382254f59892613b58a97cc876b249134ac25c80f9c814",
            "0x000000000000000000000000f689811ed7fed46ae6ca9251d62d9d1cc528ba5a",
            "0x0000000000000000000000000000000000000000000000000000000000008157",
            "0x000000000000000000000000840e5aada7a7aab5f06c5d3152512a246792183f"
          ],
          "data": "0x000000000000000000000000000000000000000000000000000000000000002000000000000000000000000000000000000000000000000000000000000000620300000005000007c9000000000000000000000000f689811ed7fed46ae6ca9251d62d9d1cc528ba5a00008157000000000000000000000000840e5aada7a7aab5f06c5d3152512a246792183f48656c6c6f2066726f6d20423320746f2041706521000000000000000000000000000000000000000000000000000000000000",
          "blockHash": "0x3b2d893d124c32b541673500bcdd67f3d139ecf96adb64bec48b2d8edd21eb68",
          "blockNumber": "0x1f20b07",
          "transactionHash": "0x74391fe4610d00927e052531ec6bba8fb1e2a2c0eb6d8b7efd29eba04ade0b15",
          "transactionIndex": "0x1",
          "logIndex": "0x0",
          "removed": false
        },
        {
          "address": "0x840e5aada7a7aab5f06c5d3152512a246792183f",
          "topics": [
            "0x788dbc1b7152732178210e7f4d9d010ef016f9eafbe66786bd7169f56e0c353a",
            "0xd521bfc7bffd6a04129c90d3f639ca30909984184f1d8a5d9e972e255c837833"
          ],
          "data": "0x",
          "blockHash": "0x3b2d893d124c32b541673500bcdd67f3d139ecf96adb64bec48b2d8edd21eb68",
          "blockNumber": "0x1f20b07",
          "transactionHash": "0x74391fe4610d00927e052531ec6bba8fb1e2a2c0eb6d8b7efd29eba04ade0b15",
          "transactionIndex": "0x1",
          "logIndex": "0x1",
          "removed": false
        },
        {
          "address": "0xf689811ed7fed46ae6ca9251d62d9d1cc528ba5a",
          "topics": [
            "0xbcfd114620ceaba6c297bf4337e8da817105a7c78fab1cc17a0f81cc1bf08beb"
          ],
          "data": "0x0000000000000000000000000000000000000000000000000000000000008157000000000000000000000000840e5aada7a7aab5f06c5d3152512a246792183f0000000000000000000000000000000000000000000000000000000000000080d521bfc7bffd6a04129c90d3f639ca30909984184f1d8a5d9e972e255c837833000000000000000000000000000000000000000000000000000000000000001548656c6c6f2066726f6d20423320746f20417065210000000000000000000000",
          "blockHash": "0x3b2d893d124c32b541673500bcdd67f3d139ecf96adb64bec48b2d8edd21eb68",
          "blockNumber": "0x1f20b07",
          "transactionHash": "0x74391fe4610d00927e052531ec6bba8fb1e2a2c0eb6d8b7efd29eba04ade0b15",
          "transactionIndex": "0x1",
          "logIndex": "0x2",
          "removed": false
        }
      ],
      "logsBloom": "0x00000000000000800008000000000004000000000000000000008020008000000200000000000000000000000000000000000000000000002000000000000800000000000000000000000000000000000000080420100000000000000000000000000004000000080000020000000000000080000000000000000004001000000000000000000000000000000000000000000000000000000000000000000000000000000000000000000000000000002000000000000000000000000040000000041000000000000000000000000000000800000100000000000000000000000000400000000000000000000000000000000000010000000000000000000000",
      "type": "0x2",
      "transactionHash": "0x74391fe4610d00927e052531ec6bba8fb1e2a2c0eb6d8b7efd29eba04ade0b15",
      "transactionIndex": "0x1",
      "blockHash": "0x3b2d893d124c32b541673500bcdd67f3d139ecf96adb64bec48b2d8edd21eb68",
      "blockNumber": "0x1f20b07",
      "gasUsed": "0xfda9",
      "effectiveGasPrice": "0xfd",
      "from": "0xcc3dee77dd3a77dc623d6c8b931a1b0aab56d81d",
      "to": "0xf689811ed7fed46ae6ca9251d62d9d1cc528ba5a",
      "contractAddress": null,
      "l1BaseFeeScalar": "0xf4240",
      "l1BlobBaseFee": "0x1",
      "l1BlobBaseFeeScalar": "0x0",
      "l1Fee": "0x11f9e0",
      "l1GasPrice": "0x18e",
      "l1GasUsed": "0xb90"
    }
  ],
  "libraries": [],
  "pending": [],
  "returns": {},
  "timestamp": 1746813735,
  "chain": 1993,
  "commit": "9342e497b"
}