{
  "transactions": [
    {
      "hash": "0x5a144512d1b2ee266817eb1a66c221ba51e35024434c3af46d46b391284b9d9e",
      "transactionType": "CALL",
      "contractName": null,
      "contractAddress": "0x5d68f3ee540cb7f05e24a7a889d84ad5be04a8e6",
      "function": "sendMessage(uint32,address,bytes)",
      "arguments": [
        "33111",
        "0x5d68f3ee540CB7F05E24A7A889D84AD5bE04a8e6",
        "0x48656c6c6f2066726f6d20423320746f2041706521"
      ],
      "transaction": {
        "from": "0xcc3dee77dd3a77dc623d6c8b931a1b0aab56d81d",
        "to": "0x5d68f3ee540cb7f05e24a7a889d84ad5be04a8e6",
        "gas": "0x172fa",
        "value": "0x0",
        "input": "0x101ac9ee00000000000000000000000000000000000000000000000000000000000081570000000000000000000000005d68f3ee540cb7f05e24a7a889d84ad5be04a8e60000000000000000000000000000000000000000000000000000000000000060000000000000000000000000000000000000000000000000000000000000001548656c6c6f2066726f6d20423320746f20417065210000000000000000000000",
        "nonce": "0x10",
        "chainId": "0x7c9"
      },
      "additionalContracts": [],
      "isFixedGasLimit": false
    }
  ],
  "receipts": [
    {
      "status": "0x1",
      "cumulativeGasUsed": "0x1a8b8",
      "logs": [
        {
          "address": "0x8abcae02b22a5267a94689f417824eff177da0df",
          "topics": [
            "0x769f711d20c679153d382254f59892613b58a97cc876b249134ac25c80f9c814",
            "0x0000000000000000000000005d68f3ee540cb7f05e24a7a889d84ad5be04a8e6",
            "0x0000000000000000000000000000000000000000000000000000000000008157",
            "0x0000000000000000000000005d68f3ee540cb7f05e24a7a889d84ad5be04a8e6"
          ],
          "data": "0x000000000000000000000000000000000000000000000000000000000000002000000000000000000000000000000000000000000000000000000000000000620300000002000007c90000000000000000000000005d68f3ee540cb7f05e24a7a889d84ad5be04a8e6000081570000000000000000000000005d68f3ee540cb7f05e24a7a889d84ad5be04a8e648656c6c6f2066726f6d20423320746f2041706521000000000000000000000000000000000000000000000000000000000000",
          "blockHash": "0x9e879f31ee19e57a2c86e9b48fdd8a39e45b658eba161305e7d83a29915ff73a",
          "blockNumber": "0x1ecee38",
          "transactionHash": "0x5a144512d1b2ee266817eb1a66c221ba51e35024434c3af46d46b391284b9d9e",
          "transactionIndex": "0x1",
          "logIndex": "0x0",
          "removed": false
        },
        {
          "address": "0x8abcae02b22a5267a94689f417824eff177da0df",
          "topics": [
            "0x788dbc1b7152732178210e7f4d9d010ef016f9eafbe66786bd7169f56e0c353a",
            "0x3226b92b5e6f01b6ad62d58154d4f2eb35f6149afd8de8cc70422e290b383518"
          ],
          "data": "0x",
          "blockHash": "0x9e879f31ee19e57a2c86e9b48fdd8a39e45b658eba161305e7d83a29915ff73a",
          "blockNumber": "0x1ecee38",
          "transactionHash": "0x5a144512d1b2ee266817eb1a66c221ba51e35024434c3af46d46b391284b9d9e",
          "transactionIndex": "0x1",
          "logIndex": "0x1",
          "removed": false
        },
        {
          "address": "0x5d68f3ee540cb7f05e24a7a889d84ad5be04a8e6",
          "topics": [
            "0xbcfd114620ceaba6c297bf4337e8da817105a7c78fab1cc17a0f81cc1bf08beb"
          ],
          "data": "0x00000000000000000000000000000000000000000000000000000000000081570000000000000000000000005d68f3ee540cb7f05e24a7a889d84ad5be04a8e600000000000000000000000000000000000000000000000000000000000000803226b92b5e6f01b6ad62d58154d4f2eb35f6149afd8de8cc70422e290b383518000000000000000000000000000000000000000000000000000000000000001548656c6c6f2066726f6d20423320746f20417065210000000000000000000000",
          "blockHash": "0x9e879f31ee19e57a2c86e9b48fdd8a39e45b658eba161305e7d83a29915ff73a",
          "blockNumber": "0x1ecee38",
          "transactionHash": "0x5a144512d1b2ee266817eb1a66c221ba51e35024434c3af46d46b391284b9d9e",
          "transactionIndex": "0x1",
          "logIndex": "0x2",
          "removed": false
        }
      ],
      "logsBloom": "0x00000000000000800000000000000000000000000000000000000000000000000000000000000000000000000000000000000000000000040000000000000800000000000000000000000000000000000000080001100004000000400000000000000004000000000000020000000080000000000000000000000004001000000000000000000000000000000000000000004000000000000000002000000000000000000000000000000000000000000000000000000000000000400000000000001000000000000000004000000000000801000100000000000000000000000000410000000000000000000000000000000000000000000000000000000000",
      "type": "0x2",
      "transactionHash": "0x5a144512d1b2ee266817eb1a66c221ba51e35024434c3af46d46b391284b9d9e",
      "transactionIndex": "0x1",
      "blockHash": "0x9e879f31ee19e57a2c86e9b48fdd8a39e45b658eba161305e7d83a29915ff73a",
      "blockNumber": "0x1ecee38",
      "gasUsed": "0xfda9",
      "effectiveGasPrice": "0xfd",
      "from": "0xcc3dee77dd3a77dc623d6c8b931a1b0aab56d81d",
      "to": "0x5d68f3ee540cb7f05e24a7a889d84ad5be04a8e6",
      "contractAddress": null,
      "l1BaseFeeScalar": "0xf4240",
      "l1BlobBaseFee": "0x1",
      "l1BlobBaseFeeScalar": "0x0",
      "l1Fee": "0x13ffbc",
      "l1GasPrice": "0x1b9",
      "l1GasUsed": "0xb9c"
    }
  ],
  "libraries": [],
  "pending": [],
  "returns": {},
  "timestamp": 1746478680,
  "chain": 1993,
  "commit": "b494393c8"
}