{
  "transactions": [
    {
      "hash": "0x7299f30045e86cb86ce0268c998650e410c662dd2ad0ff8934075dcc32161cd7",
      "transactionType": "CALL",
      "contractName": null,
      "contractAddress": "0x72e64c23b13629edb7e61c81b4c06afe8e7e5550",
      "function": "sendMessage(uint32,address,bytes)",
      "arguments": [
        "33111",
        "0x3cD986B41583beEaa96E9f8CF79a304469C58E9f",
        "0x48656c6c6f2066726f6d20423320746f2041706521"
      ],
      "transaction": {
        "from": "0xcc3dee77dd3a77dc623d6c8b931a1b0aab56d81d",
        "to": "0x72e64c23b13629edb7e61c81b4c06afe8e7e5550",
        "gas": "0x172fa",
        "value": "0x0",
        "input": "0x101ac9ee00000000000000000000000000000000000000000000000000000000000081570000000000000000000000003cd986b41583beeaa96e9f8cf79a304469c58e9f0000000000000000000000000000000000000000000000000000000000000060000000000000000000000000000000000000000000000000000000000000001548656c6c6f2066726f6d20423320746f20417065210000000000000000000000",
        "nonce": "0x23",
        "chainId": "0x7c9"
      },
      "additionalContracts": [],
      "isFixedGasLimit": false
    }
  ],
  "receipts": [
    {
      "status": "0x1",
      "cumulativeGasUsed": "0x1b39c",
      "logs": [
        {
          "address": "0x840e5aada7a7aab5f06c5d3152512a246792183f",
          "topics": [
            "0x769f711d20c679153d382254f59892613b58a97cc876b249134ac25c80f9c814",
            "0x00000000000000000000000072e64c23b13629edb7e61c81b4c06afe8e7e5550",
            "0x0000000000000000000000000000000000000000000000000000000000008157",
            "0x0000000000000000000000003cd986b41583beeaa96e9f8cf79a304469c58e9f"
          ],
          "data": "0x000000000000000000000000000000000000000000000000000000000000002000000000000000000000000000000000000000000000000000000000000000620300000001000007c900000000000000000000000072e64c23b13629edb7e61c81b4c06afe8e7e5550000081570000000000000000000000003cd986b41583beeaa96e9f8cf79a304469c58e9f48656c6c6f2066726f6d20423320746f2041706521000000000000000000000000000000000000000000000000000000000000",
          "blockHash": "0xd2a643ed87e4123de2b1129acbaaa214fbe69c2b7c070b3921d849ad72e2eb4b",
          "blockNumber": "0x1ed2b5c",
          "transactionHash": "0x7299f30045e86cb86ce0268c998650e410c662dd2ad0ff8934075dcc32161cd7",
          "transactionIndex": "0x1",
          "logIndex": "0x0",
          "removed": false
        },
        {
          "address": "0x840e5aada7a7aab5f06c5d3152512a246792183f",
          "topics": [
            "0x788dbc1b7152732178210e7f4d9d010ef016f9eafbe66786bd7169f56e0c353a",
            "0xcb966def8589e0521144ff76f09cc5a5afd0813951852bfa83062e7b55d9aeb0"
          ],
          "data": "0x",
          "blockHash": "0xd2a643ed87e4123de2b1129acbaaa214fbe69c2b7c070b3921d849ad72e2eb4b",
          "blockNumber": "0x1ed2b5c",
          "transactionHash": "0x7299f30045e86cb86ce0268c998650e410c662dd2ad0ff8934075dcc32161cd7",
          "transactionIndex": "0x1",
          "logIndex": "0x1",
          "removed": false
        },
        {
          "address": "0x72e64c23b13629edb7e61c81b4c06afe8e7e5550",
          "topics": [
            "0xbcfd114620ceaba6c297bf4337e8da817105a7c78fab1cc17a0f81cc1bf08beb"
          ],
          "data": "0x00000000000000000000000000000000000000000000000000000000000081570000000000000000000000003cd986b41583beeaa96e9f8cf79a304469c58e9f0000000000000000000000000000000000000000000000000000000000000080cb966def8589e0521144ff76f09cc5a5afd0813951852bfa83062e7b55d9aeb0000000000000000000000000000000000000000000000000000000000000001548656c6c6f2066726f6d20423320746f20417065210000000000000000000000",
          "blockHash": "0xd2a643ed87e4123de2b1129acbaaa214fbe69c2b7c070b3921d849ad72e2eb4b",
          "blockNumber": "0x1ed2b5c",
          "transactionHash": "0x7299f30045e86cb86ce0268c998650e410c662dd2ad0ff8934075dcc32161cd7",
          "transactionIndex": "0x1",
          "logIndex": "0x2",
          "removed": false
        }
      ],
      "logsBloom": "0x00000000000000800000000000000000000000000000000000000000000000000200000200000000010000000000000000000000800000002000000000004800000000000000000000000000000000000000080000100000000010000000000000000004000000080000020000000000000000000000000000000004001000000000000000000000000000000000001000000000000000000000000000000000000000000000000000000000000000000000000000000000000000000000000000001000000000080000020000000000000800000100000000000000080008000000400000000000000000002000000000000000000000000000000000000000",
      "type": "0x2",
      "transactionHash": "0x7299f30045e86cb86ce0268c998650e410c662dd2ad0ff8934075dcc32161cd7",
      "transactionIndex": "0x1",
      "blockHash": "0xd2a643ed87e4123de2b1129acbaaa214fbe69c2b7c070b3921d849ad72e2eb4b",
      "blockNumber": "0x1ed2b5c",
      "gasUsed": "0xfda9",
      "effectiveGasPrice": "0xfd",
      "from": "0xcc3dee77dd3a77dc623d6c8b931a1b0aab56d81d",
      "to": "0x72e64c23b13629edb7e61c81b4c06afe8e7e5550",
      "contractAddress": null,
      "l1BaseFeeScalar": "0xf4240",
      "l1BlobBaseFee": "0x1",
      "l1BlobBaseFeeScalar": "0x0",
      "l1Fee": "0x116a00",
      "l1GasPrice": "0x180",
      "l1GasUsed": "0xb9c"
    }
  ],
  "libraries": [],
  "pending": [],
  "returns": {},
  "timestamp": 1746494332,
  "chain": 1993,
  "commit": "79087e0d7"
}