{
  "transactions": [
    {
      "hash": "0x7c62ebe971fd6dda3ab9bb565bd303cc6fd832540c0a1bd2c1e28f5bd1df761f",
      "transactionType": "CALL",
      "contractName": null,
      "contractAddress": "0x5d68f3ee540cb7f05e24a7a889d84ad5be04a8e6",
      "function": "sendMessage(uint32,address,bytes)",
      "arguments": [
        "33111",
        "0x3cc76E528AF7584Db50f1732E45A2D57c7d12CC9",
        "0x48656c6c6f2066726f6d20423320746f2041706521"
      ],
      "transaction": {
        "from": "0xcc3dee77dd3a77dc623d6c8b931a1b0aab56d81d",
        "to": "0x5d68f3ee540cb7f05e24a7a889d84ad5be04a8e6",
        "gas": "0x172fa",
        "value": "0x0",
        "input": "0x101ac9ee00000000000000000000000000000000000000000000000000000000000081570000000000000000000000003cc76e528af7584db50f1732e45a2d57c7d12cc90000000000000000000000000000000000000000000000000000000000000060000000000000000000000000000000000000000000000000000000000000001548656c6c6f2066726f6d20423320746f20417065210000000000000000000000",
        "nonce": "0xf",
        "chainId": "0x7c9"
      },
      "additionalContracts": [],
      "isFixedGasLimit": false
    }
  ],
  "receipts": [
    {
      "status": "0x1",
      "cumulativeGasUsed": "0x1be8c",
      "logs": [
        {
          "address": "0x8abcae02b22a5267a94689f417824eff177da0df",
          "topics": [
            "0x769f711d20c679153d382254f59892613b58a97cc876b249134ac25c80f9c814",
            "0x0000000000000000000000005d68f3ee540cb7f05e24a7a889d84ad5be04a8e6",
            "0x0000000000000000000000000000000000000000000000000000000000008157",
            "0x0000000000000000000000003cc76e528af7584db50f1732e45a2d57c7d12cc9"
          ],
          "data": "0x000000000000000000000000000000000000000000000000000000000000002000000000000000000000000000000000000000000000000000000000000000620300000001000007c90000000000000000000000005d68f3ee540cb7f05e24a7a889d84ad5be04a8e6000081570000000000000000000000003cc76e528af7584db50f1732e45a2d57c7d12cc948656c6c6f2066726f6d20423320746f2041706521000000000000000000000000000000000000000000000000000000000000",
          "blockHash": "0xc13c25914ae54a7fda7a70596b97113662d6f0ddf8c98de38798ffe8a5939739",
          "blockNumber": "0x1ecd9de",
          "transactionHash": "0x7c62ebe971fd6dda3ab9bb565bd303cc6fd832540c0a1bd2c1e28f5bd1df761f",
          "transactionIndex": "0x1",
          "logIndex": "0x0",
          "removed": false
        },
        {
          "address": "0x8abcae02b22a5267a94689f417824eff177da0df",
          "topics": [
            "0x788dbc1b7152732178210e7f4d9d010ef016f9eafbe66786bd7169f56e0c353a",
            "0x0dc1c92076c800d66d9ca4ad6d330cfc8dc52b9a79ccf852b1b9e7e7d5ed6fa1"
          ],
          "data": "0x",
          "blockHash": "0xc13c25914ae54a7fda7a70596b97113662d6f0ddf8c98de38798ffe8a5939739",
          "blockNumber": "0x1ecd9de",
          "transactionHash": "0x7c62ebe971fd6dda3ab9bb565bd303cc6fd832540c0a1bd2c1e28f5bd1df761f",
          "transactionIndex": "0x1",
          "logIndex": "0x1",
          "removed": false
        },
        {
          "address": "0x5d68f3ee540cb7f05e24a7a889d84ad5be04a8e6",
          "topics": [
            "0xbcfd114620ceaba6c297bf4337e8da817105a7c78fab1cc17a0f81cc1bf08beb"
          ],
          "data": "0x00000000000000000000000000000000000000000000000000000000000081570000000000000000000000003cc76e528af7584db50f1732e45a2d57c7d12cc900000000000000000000000000000000000000000000000000000000000000800dc1c92076c800d66d9ca4ad6d330cfc8dc52b9a79ccf852b1b9e7e7d5ed6fa1000000000000000000000000000000000000000000000000000000000000001548656c6c6f2066726f6d20423320746f20417065210000000000000000000000",
          "blockHash": "0xc13c25914ae54a7fda7a70596b97113662d6f0ddf8c98de38798ffe8a5939739",
          "blockNumber": "0x1ecd9de",
          "transactionHash": "0x7c62ebe971fd6dda3ab9bb565bd303cc6fd832540c0a1bd2c1e28f5bd1df761f",
          "transactionIndex": "0x1",
          "logIndex": "0x2",
          "removed": false
        }
      ],
      "logsBloom": "0x00000000000000800000000000000000000000000000000000000000000000000000000000000000000000000000000000000000000000000000000000000820000000000000000000000000000000000000080001100004000000000000000000000004000000000000020000000080000000000000040000000004101000001000000000000000000000000000000000004000000000100000000000000000000000000000000000000000000000000000000000000000000000400000000000001000000000000000004000000000000801000100000000000000000000000000410000000000000000000000000000000000000000000000000000000001",
      "type": "0x2",
      "transactionHash": "0x7c62ebe971fd6dda3ab9bb565bd303cc6fd832540c0a1bd2c1e28f5bd1df761f",
      "transactionIndex": "0x1",
      "blockHash": "0xc13c25914ae54a7fda7a70596b97113662d6f0ddf8c98de38798ffe8a5939739",
      "blockNumber": "0x1ecd9de",
      "gasUsed": "0xfda9",
      "effectiveGasPrice": "0xfd",
      "from": "0xcc3dee77dd3a77dc623d6c8b931a1b0aab56d81d",
      "to": "0x5d68f3ee540cb7f05e24a7a889d84ad5be04a8e6",
      "contractAddress": null,
      "l1BaseFeeScalar": "0xf4240",
      "l1BlobBaseFee": "0x1",
      "l1BlobBaseFeeScalar": "0x0",
      "l1Fee": "0x125230",
      "l1GasPrice": "0x194",
      "l1GasUsed": "0xb9c"
    }
  ],
  "libraries": [],
  "pending": [],
  "returns": {},
  "timestamp": 1746473470,
  "chain": 1993,
  "commit": "828f1c768"
}